{
  "_format": "hh-sol-artifact-1",
  "contractName": "Voting",
  "sourceName": "contracts/Voting.sol",
  "abi": [
    {
      "inputs": [],
      "stateMutability": "nonpayable",
      "type": "constructor"
    },
    {
      "anonymous": false,
      "inputs": [
        {
          "indexed": true,
          "internalType": "uint256",
          "name": "candidateId",
          "type": "uint256"
        },
        {
          "indexed": false,
          "internalType": "string",
          "name": "candidate_name",
          "type": "string"
        },
        {
          "indexed": false,
          "internalType": "uint256",
          "name": "voteCount",
          "type": "uint256"
        },
        {
          "indexed": false,
          "internalType": "address",
          "name": "_address",
          "type": "address"
        },
        {
          "indexed": false,
          "internalType": "string",
          "name": "candidate_ipfs",
          "type": "string"
        }
      ],
      "name": "CandidateCreate",
      "type": "event"
    },
    {
      "anonymous": false,
      "inputs": [
        {
          "indexed": true,
          "internalType": "uint256",
          "name": "voter_voterId",
          "type": "uint256"
        },
        {
          "indexed": false,
          "internalType": "string",
          "name": "voter_name",
          "type": "string"
        },
        {
          "indexed": false,
          "internalType": "address",
          "name": "voter_address",
          "type": "address"
        },
        {
          "indexed": false,
          "internalType": "uint256",
          "name": "voter_allowed",
          "type": "uint256"
        },
        {
          "indexed": false,
          "internalType": "bool",
          "name": "voter_voted",
          "type": "bool"
        },
        {
          "indexed": false,
          "internalType": "uint256",
          "name": "voter_vote",
          "type": "uint256"
        },
        {
          "indexed": false,
          "internalType": "string",
          "name": "voter_ipfs",
          "type": "string"
        }
      ],
      "name": "VoterCreate",
      "type": "event"
    },
    {
      "inputs": [],
      "name": "_candidateId",
      "outputs": [
        {
          "internalType": "uint256",
          "name": "_value",
          "type": "uint256"
        }
      ],
      "stateMutability": "view",
      "type": "function"
    },
    {
      "inputs": [],
      "name": "_voterId",
      "outputs": [
        {
          "internalType": "uint256",
          "name": "_value",
          "type": "uint256"
        }
      ],
      "stateMutability": "view",
      "type": "function"
    },
    {
      "inputs": [
        {
          "internalType": "uint256",
          "name": "",
          "type": "uint256"
        }
      ],
      "name": "candidateAddress",
      "outputs": [
        {
          "internalType": "address",
          "name": "",
          "type": "address"
        }
      ],
      "stateMutability": "view",
      "type": "function"
    },
    {
      "inputs": [
        {
          "internalType": "address",
          "name": "",
          "type": "address"
        }
      ],
      "name": "candidates",
      "outputs": [
        {
          "internalType": "uint256",
          "name": "candidateId",
          "type": "uint256"
        },
        {
          "internalType": "string",
          "name": "candidate_name",
          "type": "string"
        },
        {
          "internalType": "uint256",
          "name": "voteCount",
          "type": "uint256"
        },
        {
          "internalType": "address",
          "name": "_address",
          "type": "address"
        },
        {
          "internalType": "string",
          "name": "candidate_ipfs",
          "type": "string"
        }
      ],
      "stateMutability": "view",
      "type": "function"
    },
    {
      "inputs": [],
      "name": "getCandidate",
      "outputs": [
        {
          "internalType": "address[]",
          "name": "",
          "type": "address[]"
        }
      ],
      "stateMutability": "view",
      "type": "function"
    },
    {
      "inputs": [],
      "name": "getCandidateLength",
      "outputs": [
        {
          "internalType": "uint256",
          "name": "",
          "type": "uint256"
        }
      ],
      "stateMutability": "view",
      "type": "function"
    },
    {
      "inputs": [
        {
          "internalType": "address",
          "name": "_address",
          "type": "address"
        }
      ],
      "name": "getCandidateinfo",
      "outputs": [
        {
          "internalType": "string",
          "name": "",
          "type": "string"
        },
        {
          "internalType": "uint256",
          "name": "",
          "type": "uint256"
        },
        {
          "internalType": "uint256",
          "name": "",
          "type": "uint256"
        },
        {
          "internalType": "string",
          "name": "",
          "type": "string"
        },
        {
          "internalType": "address",
          "name": "",
          "type": "address"
        }
      ],
      "stateMutability": "view",
      "type": "function"
    },
    {
      "inputs": [],
      "name": "getVotedList",
      "outputs": [
        {
          "internalType": "address[]",
          "name": "",
          "type": "address[]"
        }
      ],
      "stateMutability": "view",
      "type": "function"
    },
    {
      "inputs": [
        {
          "internalType": "address",
          "name": "_address",
          "type": "address"
        }
      ],
      "name": "getVoterData",
      "outputs": [
        {
          "internalType": "uint256",
          "name": "",
          "type": "uint256"
        },
        {
          "internalType": "string",
          "name": "",
          "type": "string"
        },
        {
          "internalType": "address",
          "name": "",
          "type": "address"
        },
        {
          "internalType": "string",
          "name": "",
          "type": "string"
        },
        {
          "internalType": "uint256",
          "name": "",
          "type": "uint256"
        },
        {
          "internalType": "bool",
          "name": "",
          "type": "bool"
        }
      ],
      "stateMutability": "view",
      "type": "function"
    },
    {
      "inputs": [],
      "name": "getVoterLength",
      "outputs": [
        {
          "internalType": "uint256",
          "name": "",
          "type": "uint256"
        }
      ],
      "stateMutability": "view",
      "type": "function"
    },
    {
      "inputs": [],
      "name": "getVoterList",
      "outputs": [
        {
          "internalType": "address[]",
          "name": "",
          "type": "address[]"
        }
      ],
      "stateMutability": "view",
      "type": "function"
    },
    {
      "inputs": [
        {
          "internalType": "address",
          "name": "_address",
          "type": "address"
        },
        {
          "internalType": "string",
          "name": "_name",
          "type": "string"
        },
        {
          "internalType": "string",
          "name": "_ipfs",
          "type": "string"
        }
      ],
      "name": "setCandidate",
      "outputs": [],
      "stateMutability": "nonpayable",
      "type": "function"
    },
    {
      "inputs": [
        {
          "internalType": "address",
          "name": "_address",
          "type": "address"
        },
        {
          "internalType": "string",
          "name": "_name",
          "type": "string"
        },
        {
          "internalType": "string",
          "name": "_ipfs",
          "type": "string"
        }
      ],
      "name": "setVoter",
      "outputs": [],
      "stateMutability": "nonpayable",
      "type": "function"
    },
    {
      "inputs": [
        {
          "internalType": "address",
          "name": "_candidateAddress",
          "type": "address"
        },
        {
          "internalType": "uint256",
          "name": "",
          "type": "uint256"
        }
      ],
      "name": "vote",
      "outputs": [],
      "stateMutability": "nonpayable",
      "type": "function"
    },
    {
      "inputs": [
        {
          "internalType": "uint256",
          "name": "",
          "type": "uint256"
        }
      ],
      "name": "votedVoters",
      "outputs": [
        {
          "internalType": "address",
          "name": "",
          "type": "address"
        }
      ],
      "stateMutability": "view",
      "type": "function"
    },
    {
      "inputs": [
        {
          "internalType": "address",
          "name": "",
          "type": "address"
        }
      ],
      "name": "voters",
      "outputs": [
        {
          "internalType": "uint256",
          "name": "voter_voterId",
          "type": "uint256"
        },
        {
          "internalType": "string",
          "name": "voter_name",
          "type": "string"
        },
        {
          "internalType": "address",
          "name": "voter_address",
          "type": "address"
        },
        {
          "internalType": "uint256",
          "name": "voter_allowed",
          "type": "uint256"
        },
        {
          "internalType": "bool",
          "name": "voter_voted",
          "type": "bool"
        },
        {
          "internalType": "uint256",
          "name": "voter_vote",
          "type": "uint256"
        },
        {
          "internalType": "string",
          "name": "voter_ipfs",
          "type": "string"
        }
      ],
      "stateMutability": "view",
      "type": "function"
    },
    {
      "inputs": [
        {
          "internalType": "uint256",
          "name": "",
          "type": "uint256"
        }
      ],
      "name": "votersAddress",
      "outputs": [
        {
          "internalType": "address",
          "name": "",
          "type": "address"
        }
      ],
      "stateMutability": "view",
      "type": "function"
    },
    {
      "inputs": [],
      "name": "votingOwner",
      "outputs": [
        {
          "internalType": "address",
          "name": "",
          "type": "address"
        }
      ],
      "stateMutability": "view",
      "type": "function"
    },
    {
      "stateMutability": "payable",
      "type": "receive"
    }
  ],
  "bytecode": "0x608060405234801561001057600080fd5b5033600260006101000a81548173ffffffffffffffffffffffffffffffffffffffff021916908373ffffffffffffffffffffffffffffffffffffffff160217905550611f28806100616000396000f3fe60806040526004361061010d5760003560e01c80637a60ba4111610095578063a3ec138d11610064578063a3ec138d146103bb578063a7388967146103fe578063b28d92ae14610429578063b9be315214610454578063f7522a831461047f57610114565b80637a60ba41146102e4578063809163e31461030d5780638ab66a90146103385780638fb4cd801461037957610114565b80633a88251a116100dc5780633a88251a146101d957806343242daa146102165780635f74bbde1461025357806370218b851461027c5780637831ffb3146102a757610114565b806305ad45a4146101195780632348206a146101445780632ebd2d6a1461016d5780633970afa9146101ae57610114565b3661011457005b600080fd5b34801561012557600080fd5b5061012e6104aa565b60405161013b91906115f3565b60405180910390f35b34801561015057600080fd5b5061016b600480360381019061016691906117c6565b6104b7565b005b34801561017957600080fd5b50610194600480360381019061018f9190611851565b610698565b6040516101a5959493929190611915565b60405180910390f35b3480156101ba57600080fd5b506101c3610939565b6040516101d09190611a34565b60405180910390f35b3480156101e557600080fd5b5061020060048036038101906101fb9190611a82565b6109c7565b60405161020d9190611aaf565b60405180910390f35b34801561022257600080fd5b5061023d60048036038101906102389190611a82565b610a06565b60405161024a9190611aaf565b60405180910390f35b34801561025f57600080fd5b5061027a60048036038101906102759190611aca565b610a45565b005b34801561028857600080fd5b50610291610c04565b60405161029e9190611a34565b60405180910390f35b3480156102b357600080fd5b506102ce60048036038101906102c99190611a82565b610c92565b6040516102db9190611aaf565b60405180910390f35b3480156102f057600080fd5b5061030b600480360381019061030691906117c6565b610cd1565b005b34801561031957600080fd5b50610322610e60565b60405161032f9190611aaf565b60405180910390f35b34801561034457600080fd5b5061035f600480360381019061035a9190611851565b610e86565b604051610370959493929190611b0a565b60405180910390f35b34801561038557600080fd5b506103a0600480360381019061039b9190611851565b610fec565b6040516103b296959493929190611b86565b60405180910390f35b3480156103c757600080fd5b506103e260048036038101906103dd9190611851565b6112e1565b6040516103f59796959493929190611bf5565b60405180910390f35b34801561040a57600080fd5b50610413611460565b60405161042091906115f3565b60405180910390f35b34801561043557600080fd5b5061043e61146c565b60405161044b9190611a34565b60405180910390f35b34801561046057600080fd5b506104696114fa565b60405161047691906115f3565b60405180910390f35b34801561048b57600080fd5b50610494611506565b6040516104a191906115f3565b60405180910390f35b6000600680549050905090565b6104c16000611513565b60006104cd6000611529565b90506000600760008673ffffffffffffffffffffffffffffffffffffffff1673ffffffffffffffffffffffffffffffffffffffff1681526020019081526020016000209050600081600301541461052357600080fd5b600181600301819055508181600001819055508381600101908051906020019061054e929190611537565b50848160020160006101000a81548173ffffffffffffffffffffffffffffffffffffffff021916908373ffffffffffffffffffffffffffffffffffffffff16021790555060008160040160006101000a81548160ff0219169083151502179055506103e88160050181905550828160060190805190602001906105d2929190611537565b506006859080600181540180825580915050600190039060005260206000200160009091909190916101000a81548173ffffffffffffffffffffffffffffffffffffffff021916908373ffffffffffffffffffffffffffffffffffffffff160217905550817f68ea7283416d0b6b5f515e69d433621b49f3b2853e2bd5f5640f6f1c47ce5be1858784600301548560040160009054906101000a900460ff1686600501548960405161068996959493929190611c72565b60405180910390a25050505050565b606060008060606000600460008773ffffffffffffffffffffffffffffffffffffffff1673ffffffffffffffffffffffffffffffffffffffff168152602001908152602001600020600101600460008873ffffffffffffffffffffffffffffffffffffffff1673ffffffffffffffffffffffffffffffffffffffff16815260200190815260200160002060000154600460008973ffffffffffffffffffffffffffffffffffffffff1673ffffffffffffffffffffffffffffffffffffffff16815260200190815260200160002060020154600460008a73ffffffffffffffffffffffffffffffffffffffff1673ffffffffffffffffffffffffffffffffffffffff168152602001908152602001600020600401600460008b73ffffffffffffffffffffffffffffffffffffffff1673ffffffffffffffffffffffffffffffffffffffff16815260200190815260200160002060030160009054906101000a900473ffffffffffffffffffffffffffffffffffffffff1684805461081a90611d10565b80601f016020809104026020016040519081016040528092919081815260200182805461084690611d10565b80156108935780601f1061086857610100808354040283529160200191610893565b820191906000526020600020905b81548152906001019060200180831161087657829003601f168201915b505050505094508180546108a690611d10565b80601f01602080910402602001604051908101604052809291908181526020018280546108d290611d10565b801561091f5780601f106108f45761010080835404028352916020019161091f565b820191906000526020600020905b81548152906001019060200180831161090257829003601f168201915b505050505091509450945094509450945091939590929450565b606060058054806020026020016040519081016040528092919081815260200182805480156109bd57602002820191906000526020600020905b8160009054906101000a900473ffffffffffffffffffffffffffffffffffffffff1673ffffffffffffffffffffffffffffffffffffffff1681526020019060010190808311610973575b5050505050905090565b600381815481106109d757600080fd5b906000526020600020016000915054906101000a900473ffffffffffffffffffffffffffffffffffffffff1681565b60068181548110610a1657600080fd5b906000526020600020016000915054906101000a900473ffffffffffffffffffffffffffffffffffffffff1681565b6000600760003373ffffffffffffffffffffffffffffffffffffffff1673ffffffffffffffffffffffffffffffffffffffff16815260200190815260200160002090508060040160009054906101000a900460ff1615610ada576040517f08c379a0000000000000000000000000000000000000000000000000000000008152600401610ad190611d8e565b60405180910390fd5b600081600301541415610b22576040517f08c379a0000000000000000000000000000000000000000000000000000000008152600401610b1990611dfa565b60405180910390fd5b60018160040160006101000a81548160ff0219169083151502179055506005339080600181540180825580915050600190039060005260206000200160009091909190916101000a81548173ffffffffffffffffffffffffffffffffffffffff021916908373ffffffffffffffffffffffffffffffffffffffff1602179055508060030154600460008573ffffffffffffffffffffffffffffffffffffffff1673ffffffffffffffffffffffffffffffffffffffff1681526020019081526020016000206002016000828254610bf89190611e49565b92505081905550505050565b60606003805480602002602001604051908101604052809291908181526020018280548015610c8857602002820191906000526020600020905b8160009054906101000a900473ffffffffffffffffffffffffffffffffffffffff1673ffffffffffffffffffffffffffffffffffffffff1681526020019060010190808311610c3e575b5050505050905090565b60058181548110610ca257600080fd5b906000526020600020016000915054906101000a900473ffffffffffffffffffffffffffffffffffffffff1681565b610cdb6001611513565b6000610ce76001611529565b90506000600460008673ffffffffffffffffffffffffffffffffffffffff1673ffffffffffffffffffffffffffffffffffffffff168152602001908152602001600020905081816000018190555083816001019080519060200190610d4d929190611537565b5060008160020181905550848160030160006101000a81548173ffffffffffffffffffffffffffffffffffffffff021916908373ffffffffffffffffffffffffffffffffffffffff16021790555082816004019080519060200190610db3929190611537565b506003859080600181540180825580915050600190039060005260206000200160009091909190916101000a81548173ffffffffffffffffffffffffffffffffffffffff021916908373ffffffffffffffffffffffffffffffffffffffff160217905550817f270d066d6908c46c7a09be4e4e0ac84482adb96b281ad54d70a8df76c6ab356c8583600201548887604051610e519493929190611e9f565b60405180910390a25050505050565b600260009054906101000a900473ffffffffffffffffffffffffffffffffffffffff1681565b6004602052806000526040600020600091509050806000015490806001018054610eaf90611d10565b80601f0160208091040260200160405190810160405280929190818152602001828054610edb90611d10565b8015610f285780601f10610efd57610100808354040283529160200191610f28565b820191906000526020600020905b815481529060010190602001808311610f0b57829003601f168201915b5050505050908060020154908060030160009054906101000a900473ffffffffffffffffffffffffffffffffffffffff1690806004018054610f6990611d10565b80601f0160208091040260200160405190810160405280929190818152602001828054610f9590611d10565b8015610fe25780601f10610fb757610100808354040283529160200191610fe2565b820191906000526020600020905b815481529060010190602001808311610fc557829003601f168201915b5050505050905085565b6000606060006060600080600760008873ffffffffffffffffffffffffffffffffffffffff1673ffffffffffffffffffffffffffffffffffffffff16815260200190815260200160002060000154600760008973ffffffffffffffffffffffffffffffffffffffff1673ffffffffffffffffffffffffffffffffffffffff168152602001908152602001600020600101600760008a73ffffffffffffffffffffffffffffffffffffffff1673ffffffffffffffffffffffffffffffffffffffff16815260200190815260200160002060020160009054906101000a900473ffffffffffffffffffffffffffffffffffffffff16600760008b73ffffffffffffffffffffffffffffffffffffffff1673ffffffffffffffffffffffffffffffffffffffff168152602001908152602001600020600601600760008c73ffffffffffffffffffffffffffffffffffffffff1673ffffffffffffffffffffffffffffffffffffffff16815260200190815260200160002060030154600760008d73ffffffffffffffffffffffffffffffffffffffff1673ffffffffffffffffffffffffffffffffffffffff16815260200190815260200160002060040160009054906101000a900460ff168480546111c090611d10565b80601f01602080910402602001604051908101604052809291908181526020018280546111ec90611d10565b80156112395780601f1061120e57610100808354040283529160200191611239565b820191906000526020600020905b81548152906001019060200180831161121c57829003601f168201915b5050505050945082805461124c90611d10565b80601f016020809104026020016040519081016040528092919081815260200182805461127890611d10565b80156112c55780601f1061129a576101008083540402835291602001916112c5565b820191906000526020600020905b8154815290600101906020018083116112a857829003601f168201915b5050505050925095509550955095509550955091939550919395565b600760205280600052604060002060009150905080600001549080600101805461130a90611d10565b80601f016020809104026020016040519081016040528092919081815260200182805461133690611d10565b80156113835780601f1061135857610100808354040283529160200191611383565b820191906000526020600020905b81548152906001019060200180831161136657829003601f168201915b5050505050908060020160009054906101000a900473ffffffffffffffffffffffffffffffffffffffff16908060030154908060040160009054906101000a900460ff16908060050154908060060180546113dd90611d10565b80601f016020809104026020016040519081016040528092919081815260200182805461140990611d10565b80156114565780601f1061142b57610100808354040283529160200191611456565b820191906000526020600020905b81548152906001019060200180831161143957829003601f168201915b5050505050905087565b60018060000154905081565b606060068054806020026020016040519081016040528092919081815260200182805480156114f057602002820191906000526020600020905b8160009054906101000a900473ffffffffffffffffffffffffffffffffffffffff1673ffffffffffffffffffffffffffffffffffffffff16815260200190600101908083116114a6575b5050505050905090565b60008060000154905081565b6000600380549050905090565b6001816000016000828254019250508190555050565b600081600001549050919050565b82805461154390611d10565b90600052602060002090601f01602090048101928261156557600085556115ac565b82601f1061157e57805160ff19168380011785556115ac565b828001600101855582156115ac579182015b828111156115ab578251825591602001919060010190611590565b5b5090506115b991906115bd565b5090565b5b808211156115d65760008160009055506001016115be565b5090565b6000819050919050565b6115ed816115da565b82525050565b600060208201905061160860008301846115e4565b92915050565b6000604051905090565b600080fd5b600080fd5b600073ffffffffffffffffffffffffffffffffffffffff82169050919050565b600061164d82611622565b9050919050565b61165d81611642565b811461166857600080fd5b50565b60008135905061167a81611654565b92915050565b600080fd5b600080fd5b6000601f19601f8301169050919050565b7f4e487b7100000000000000000000000000000000000000000000000000000000600052604160045260246000fd5b6116d38261168a565b810181811067ffffffffffffffff821117156116f2576116f161169b565b5b80604052505050565b600061170561160e565b905061171182826116ca565b919050565b600067ffffffffffffffff8211156117315761173061169b565b5b61173a8261168a565b9050602081019050919050565b82818337600083830152505050565b600061176961176484611716565b6116fb565b90508281526020810184848401111561178557611784611685565b5b611790848285611747565b509392505050565b600082601f8301126117ad576117ac611680565b5b81356117bd848260208601611756565b91505092915050565b6000806000606084860312156117df576117de611618565b5b60006117ed8682870161166b565b935050602084013567ffffffffffffffff81111561180e5761180d61161d565b5b61181a86828701611798565b925050604084013567ffffffffffffffff81111561183b5761183a61161d565b5b61184786828701611798565b9150509250925092565b60006020828403121561186757611866611618565b5b60006118758482850161166b565b91505092915050565b600081519050919050565b600082825260208201905092915050565b60005b838110156118b857808201518184015260208101905061189d565b838111156118c7576000848401525b50505050565b60006118d88261187e565b6118e28185611889565b93506118f281856020860161189a565b6118fb8161168a565b840191505092915050565b61190f81611642565b82525050565b600060a082019050818103600083015261192f81886118cd565b905061193e60208301876115e4565b61194b60408301866115e4565b818103606083015261195d81856118cd565b905061196c6080830184611906565b9695505050505050565b600081519050919050565b600082825260208201905092915050565b6000819050602082019050919050565b6119ab81611642565b82525050565b60006119bd83836119a2565b60208301905092915050565b6000602082019050919050565b60006119e182611976565b6119eb8185611981565b93506119f683611992565b8060005b83811015611a27578151611a0e88826119b1565b9750611a19836119c9565b9250506001810190506119fa565b5085935050505092915050565b60006020820190508181036000830152611a4e81846119d6565b905092915050565b611a5f816115da565b8114611a6a57600080fd5b50565b600081359050611a7c81611a56565b92915050565b600060208284031215611a9857611a97611618565b5b6000611aa684828501611a6d565b91505092915050565b6000602082019050611ac46000830184611906565b92915050565b60008060408385031215611ae157611ae0611618565b5b6000611aef8582860161166b565b9250506020611b0085828601611a6d565b9150509250929050565b600060a082019050611b1f60008301886115e4565b8181036020830152611b3181876118cd565b9050611b4060408301866115e4565b611b4d6060830185611906565b8181036080830152611b5f81846118cd565b90509695505050505050565b60008115159050919050565b611b8081611b6b565b82525050565b600060c082019050611b9b60008301896115e4565b8181036020830152611bad81886118cd565b9050611bbc6040830187611906565b8181036060830152611bce81866118cd565b9050611bdd60808301856115e4565b611bea60a0830184611b77565b979650505050505050565b600060e082019050611c0a600083018a6115e4565b8181036020830152611c1c81896118cd565b9050611c2b6040830188611906565b611c3860608301876115e4565b611c456080830186611b77565b611c5260a08301856115e4565b81810360c0830152611c6481846118cd565b905098975050505050505050565b600060c0820190508181036000830152611c8c81896118cd565b9050611c9b6020830188611906565b611ca860408301876115e4565b611cb56060830186611b77565b611cc260808301856115e4565b81810360a0830152611cd481846118cd565b9050979650505050505050565b7f4e487b7100000000000000000000000000000000000000000000000000000000600052602260045260246000fd5b60006002820490506001821680611d2857607f821691505b60208210811415611d3c57611d3b611ce1565b5b50919050565b7f596f75206861766520616c726561647920766f7465642e000000000000000000600082015250565b6000611d78601783611889565b9150611d8382611d42565b602082019050919050565b60006020820190508181036000830152611da781611d6b565b9050919050565b7f596f7520646f6e7420686176652074686520726967687420746f20766f74652e600082015250565b6000611de4602083611889565b9150611def82611dae565b602082019050919050565b60006020820190508181036000830152611e1381611dd7565b9050919050565b7f4e487b7100000000000000000000000000000000000000000000000000000000600052601160045260246000fd5b6000611e54826115da565b9150611e5f836115da565b9250827fffffffffffffffffffffffffffffffffffffffffffffffffffffffffffffffff03821115611e9457611e93611e1a565b5b828201905092915050565b60006080820190508181036000830152611eb981876118cd565b9050611ec860208301866115e4565b611ed56040830185611906565b8181036060830152611ee781846118cd565b90509594505050505056fea2646970667358221220b23c9382b3fd83ab26e938924ea2816d0f4c565935fa2096ae92c8b3d56f3f2f64736f6c63430008090033",
  "linkReferences": {},
  "deployedLinkReferences": {}
}