{
  "_format": "hh-sol-artifact-1",
  "contractName": "Voting",
  "sourceName": "contracts/Voting.sol",
  "abi": [
    {
      "inputs": [],
      "stateMutability": "nonpayable",
      "type": "constructor"
    },
    {
      "anonymous": false,
      "inputs": [
        {
          "indexed": true,
          "internalType": "uint256",
          "name": "candidateId",
          "type": "uint256"
        },
        {
          "indexed": false,
          "internalType": "string",
          "name": "candidate_name",
          "type": "string"
        },
        {
          "indexed": false,
          "internalType": "uint256",
          "name": "voteCount",
          "type": "uint256"
        },
        {
          "indexed": false,
          "internalType": "address",
          "name": "_address",
          "type": "address"
        },
        {
          "indexed": false,
          "internalType": "string",
          "name": "candidate_ipfs",
          "type": "string"
        }
      ],
      "name": "CandidateCreate",
      "type": "event"
    },
    {
      "anonymous": false,
      "inputs": [
        {
          "indexed": true,
          "internalType": "uint256",
          "name": "voter_voterId",
          "type": "uint256"
        },
        {
          "indexed": false,
          "internalType": "string",
          "name": "voter_name",
          "type": "string"
        },
        {
          "indexed": false,
          "internalType": "address",
          "name": "voter_address",
          "type": "address"
        },
        {
          "indexed": false,
          "internalType": "uint256",
          "name": "voter_allowed",
          "type": "uint256"
        },
        {
          "indexed": false,
          "internalType": "bool",
          "name": "voter_voted",
          "type": "bool"
        },
        {
          "indexed": false,
          "internalType": "uint256",
          "name": "voter_vote",
          "type": "uint256"
        },
        {
          "indexed": false,
          "internalType": "string",
          "name": "voter_ipfs",
          "type": "string"
        }
      ],
      "name": "VoterCreate",
      "type": "event"
    },
    {
      "inputs": [],
      "name": "_candidateId",
      "outputs": [
        {
          "internalType": "uint256",
          "name": "_value",
          "type": "uint256"
        }
      ],
      "stateMutability": "view",
      "type": "function"
    },
    {
      "inputs": [],
      "name": "_voterId",
      "outputs": [
        {
          "internalType": "uint256",
          "name": "_value",
          "type": "uint256"
        }
      ],
      "stateMutability": "view",
      "type": "function"
    },
    {
      "inputs": [
        {
          "internalType": "uint256",
          "name": "",
          "type": "uint256"
        }
      ],
      "name": "candidateAddress",
      "outputs": [
        {
          "internalType": "address",
          "name": "",
          "type": "address"
        }
      ],
      "stateMutability": "view",
      "type": "function"
    },
    {
      "inputs": [
        {
          "internalType": "address",
          "name": "",
          "type": "address"
        }
      ],
      "name": "candidates",
      "outputs": [
        {
          "internalType": "uint256",
          "name": "candidateId",
          "type": "uint256"
        },
        {
          "internalType": "string",
          "name": "candidate_name",
          "type": "string"
        },
        {
          "internalType": "uint256",
          "name": "voteCount",
          "type": "uint256"
        },
        {
          "internalType": "address",
          "name": "_address",
          "type": "address"
        },
        {
          "internalType": "string",
          "name": "candidate_ipfs",
          "type": "string"
        }
      ],
      "stateMutability": "view",
      "type": "function"
    },
    {
      "inputs": [],
      "name": "getCandidate",
      "outputs": [
        {
          "internalType": "address[]",
          "name": "",
          "type": "address[]"
        }
      ],
      "stateMutability": "view",
      "type": "function"
    },
    {
      "inputs": [],
      "name": "getCandidateLength",
      "outputs": [
        {
          "internalType": "uint256",
          "name": "",
          "type": "uint256"
        }
      ],
      "stateMutability": "view",
      "type": "function"
    },
    {
      "inputs": [
        {
          "internalType": "address",
          "name": "_address",
          "type": "address"
        }
      ],
      "name": "getCandidateinfo",
      "outputs": [
        {
          "internalType": "string",
          "name": "",
          "type": "string"
        },
        {
          "internalType": "uint256",
          "name": "",
          "type": "uint256"
        },
        {
          "internalType": "uint256",
          "name": "",
          "type": "uint256"
        },
        {
          "internalType": "string",
          "name": "",
          "type": "string"
        },
        {
          "internalType": "address",
          "name": "",
          "type": "address"
        }
      ],
      "stateMutability": "view",
      "type": "function"
    },
    {
      "inputs": [],
      "name": "getVotedList",
      "outputs": [
        {
          "internalType": "address[]",
          "name": "",
          "type": "address[]"
        }
      ],
      "stateMutability": "view",
      "type": "function"
    },
    {
      "inputs": [
        {
          "internalType": "address",
          "name": "_address",
          "type": "address"
        }
      ],
      "name": "getVoterData",
      "outputs": [
        {
          "internalType": "uint256",
          "name": "",
          "type": "uint256"
        },
        {
          "internalType": "string",
          "name": "",
          "type": "string"
        },
        {
          "internalType": "address",
          "name": "",
          "type": "address"
        },
        {
          "internalType": "string",
          "name": "",
          "type": "string"
        },
        {
          "internalType": "uint256",
          "name": "",
          "type": "uint256"
        },
        {
          "internalType": "bool",
          "name": "",
          "type": "bool"
        }
      ],
      "stateMutability": "view",
      "type": "function"
    },
    {
      "inputs": [],
      "name": "getVoterLength",
      "outputs": [
        {
          "internalType": "uint256",
          "name": "",
          "type": "uint256"
        }
      ],
      "stateMutability": "view",
      "type": "function"
    },
    {
      "inputs": [],
      "name": "getVoterList",
      "outputs": [
        {
          "internalType": "address[]",
          "name": "",
          "type": "address[]"
        }
      ],
      "stateMutability": "view",
      "type": "function"
    },
    {
      "inputs": [
        {
          "internalType": "address",
          "name": "_address",
          "type": "address"
        },
        {
          "internalType": "string",
          "name": "_name",
          "type": "string"
        },
        {
          "internalType": "string",
          "name": "_ipfs",
          "type": "string"
        }
      ],
      "name": "setCandidate",
      "outputs": [],
      "stateMutability": "nonpayable",
      "type": "function"
    },
    {
      "inputs": [
        {
          "internalType": "address",
          "name": "_address",
          "type": "address"
        },
        {
          "internalType": "string",
          "name": "_name",
          "type": "string"
        },
        {
          "internalType": "string",
          "name": "_ipfs",
          "type": "string"
        }
      ],
      "name": "setVoter",
      "outputs": [],
      "stateMutability": "nonpayable",
      "type": "function"
    },
    {
      "inputs": [
        {
          "internalType": "address",
          "name": "_candidateAddress",
          "type": "address"
        },
        {
          "internalType": "uint256",
          "name": "",
          "type": "uint256"
        }
      ],
      "name": "vote",
      "outputs": [],
      "stateMutability": "nonpayable",
      "type": "function"
    },
    {
      "inputs": [
        {
          "internalType": "uint256",
          "name": "",
          "type": "uint256"
        }
      ],
      "name": "votedVoters",
      "outputs": [
        {
          "internalType": "address",
          "name": "",
          "type": "address"
        }
      ],
      "stateMutability": "view",
      "type": "function"
    },
    {
      "inputs": [
        {
          "internalType": "address",
          "name": "",
          "type": "address"
        }
      ],
      "name": "voters",
      "outputs": [
        {
          "internalType": "uint256",
          "name": "voter_voterId",
          "type": "uint256"
        },
        {
          "internalType": "string",
          "name": "voter_name",
          "type": "string"
        },
        {
          "internalType": "address",
          "name": "voter_address",
          "type": "address"
        },
        {
          "internalType": "uint256",
          "name": "voter_allowed",
          "type": "uint256"
        },
        {
          "internalType": "bool",
          "name": "voter_voted",
          "type": "bool"
        },
        {
          "internalType": "uint256",
          "name": "voter_vote",
          "type": "uint256"
        },
        {
          "internalType": "string",
          "name": "voter_ipfs",
          "type": "string"
        }
      ],
      "stateMutability": "view",
      "type": "function"
    },
    {
      "inputs": [
        {
          "internalType": "uint256",
          "name": "",
          "type": "uint256"
        }
      ],
      "name": "votersAddress",
      "outputs": [
        {
          "internalType": "address",
          "name": "",
          "type": "address"
        }
      ],
      "stateMutability": "view",
      "type": "function"
    },
    {
      "inputs": [],
      "name": "votingOwner",
      "outputs": [
        {
          "internalType": "address",
          "name": "",
          "type": "address"
        }
      ],
      "stateMutability": "view",
      "type": "function"
    }
  ],
  "bytecode": "0x608060405234801561001057600080fd5b5033600260006101000a81548173ffffffffffffffffffffffffffffffffffffffff021916908373ffffffffffffffffffffffffffffffffffffffff160217905550611e40806100616000396000f3fe608060405234801561001057600080fd5b50600436106101165760003560e01c80637a60ba41116100a2578063a3ec138d11610071578063a3ec138d14610314578063a73889671461034a578063b28d92ae14610368578063b9be315214610386578063f7522a83146103a457610116565b80637a60ba4114610271578063809163e31461028d5780638ab66a90146102ab5780638fb4cd80146102df57610116565b80633a88251a116100e95780633a88251a146101a757806343242daa146101d75780635f74bbde1461020757806370218b85146102235780637831ffb31461024157610116565b806305ad45a41461011b5780632348206a146101395780632ebd2d6a146101555780633970afa914610189575b600080fd5b6101236103c2565b604051610130919061150b565b60405180910390f35b610153600480360381019061014e91906116de565b6103cf565b005b61016f600480360381019061016a9190611769565b6105b0565b60405161018095949392919061182d565b60405180910390f35b610191610851565b60405161019e919061194c565b60405180910390f35b6101c160048036038101906101bc919061199a565b6108df565b6040516101ce91906119c7565b60405180910390f35b6101f160048036038101906101ec919061199a565b61091e565b6040516101fe91906119c7565b60405180910390f35b610221600480360381019061021c91906119e2565b61095d565b005b61022b610b1c565b604051610238919061194c565b60405180910390f35b61025b6004803603810190610256919061199a565b610baa565b60405161026891906119c7565b60405180910390f35b61028b600480360381019061028691906116de565b610be9565b005b610295610d78565b6040516102a291906119c7565b60405180910390f35b6102c560048036038101906102c09190611769565b610d9e565b6040516102d6959493929190611a22565b60405180910390f35b6102f960048036038101906102f49190611769565b610f04565b60405161030b96959493929190611a9e565b60405180910390f35b61032e60048036038101906103299190611769565b6111f9565b6040516103419796959493929190611b0d565b60405180910390f35b610352611378565b60405161035f919061150b565b60405180910390f35b610370611384565b60405161037d919061194c565b60405180910390f35b61038e611412565b60405161039b919061150b565b60405180910390f35b6103ac61141e565b6040516103b9919061150b565b60405180910390f35b6000600680549050905090565b6103d9600061142b565b60006103e56000611441565b90506000600760008673ffffffffffffffffffffffffffffffffffffffff1673ffffffffffffffffffffffffffffffffffffffff1681526020019081526020016000209050600081600301541461043b57600080fd5b600181600301819055508181600001819055508381600101908051906020019061046692919061144f565b50848160020160006101000a81548173ffffffffffffffffffffffffffffffffffffffff021916908373ffffffffffffffffffffffffffffffffffffffff16021790555060008160040160006101000a81548160ff0219169083151502179055506103e88160050181905550828160060190805190602001906104ea92919061144f565b506006859080600181540180825580915050600190039060005260206000200160009091909190916101000a81548173ffffffffffffffffffffffffffffffffffffffff021916908373ffffffffffffffffffffffffffffffffffffffff160217905550817f68ea7283416d0b6b5f515e69d433621b49f3b2853e2bd5f5640f6f1c47ce5be1858784600301548560040160009054906101000a900460ff168660050154896040516105a196959493929190611b8a565b60405180910390a25050505050565b606060008060606000600460008773ffffffffffffffffffffffffffffffffffffffff1673ffffffffffffffffffffffffffffffffffffffff168152602001908152602001600020600101600460008873ffffffffffffffffffffffffffffffffffffffff1673ffffffffffffffffffffffffffffffffffffffff16815260200190815260200160002060000154600460008973ffffffffffffffffffffffffffffffffffffffff1673ffffffffffffffffffffffffffffffffffffffff16815260200190815260200160002060020154600460008a73ffffffffffffffffffffffffffffffffffffffff1673ffffffffffffffffffffffffffffffffffffffff168152602001908152602001600020600401600460008b73ffffffffffffffffffffffffffffffffffffffff1673ffffffffffffffffffffffffffffffffffffffff16815260200190815260200160002060030160009054906101000a900473ffffffffffffffffffffffffffffffffffffffff1684805461073290611c28565b80601f016020809104026020016040519081016040528092919081815260200182805461075e90611c28565b80156107ab5780601f10610780576101008083540402835291602001916107ab565b820191906000526020600020905b81548152906001019060200180831161078e57829003601f168201915b505050505094508180546107be90611c28565b80601f01602080910402602001604051908101604052809291908181526020018280546107ea90611c28565b80156108375780601f1061080c57610100808354040283529160200191610837565b820191906000526020600020905b81548152906001019060200180831161081a57829003601f168201915b505050505091509450945094509450945091939590929450565b606060058054806020026020016040519081016040528092919081815260200182805480156108d557602002820191906000526020600020905b8160009054906101000a900473ffffffffffffffffffffffffffffffffffffffff1673ffffffffffffffffffffffffffffffffffffffff168152602001906001019080831161088b575b5050505050905090565b600381815481106108ef57600080fd5b906000526020600020016000915054906101000a900473ffffffffffffffffffffffffffffffffffffffff1681565b6006818154811061092e57600080fd5b906000526020600020016000915054906101000a900473ffffffffffffffffffffffffffffffffffffffff1681565b6000600760003373ffffffffffffffffffffffffffffffffffffffff1673ffffffffffffffffffffffffffffffffffffffff16815260200190815260200160002090508060040160009054906101000a900460ff16156109f2576040517f08c379a00000000000000000000000000000000000000000000000000000000081526004016109e990611ca6565b60405180910390fd5b600081600301541415610a3a576040517f08c379a0000000000000000000000000000000000000000000000000000000008152600401610a3190611d12565b60405180910390fd5b60018160040160006101000a81548160ff0219169083151502179055506005339080600181540180825580915050600190039060005260206000200160009091909190916101000a81548173ffffffffffffffffffffffffffffffffffffffff021916908373ffffffffffffffffffffffffffffffffffffffff1602179055508060030154600460008573ffffffffffffffffffffffffffffffffffffffff1673ffffffffffffffffffffffffffffffffffffffff1681526020019081526020016000206002016000828254610b109190611d61565b92505081905550505050565b60606003805480602002602001604051908101604052809291908181526020018280548015610ba057602002820191906000526020600020905b8160009054906101000a900473ffffffffffffffffffffffffffffffffffffffff1673ffffffffffffffffffffffffffffffffffffffff1681526020019060010190808311610b56575b5050505050905090565b60058181548110610bba57600080fd5b906000526020600020016000915054906101000a900473ffffffffffffffffffffffffffffffffffffffff1681565b610bf3600161142b565b6000610bff6001611441565b90506000600460008673ffffffffffffffffffffffffffffffffffffffff1673ffffffffffffffffffffffffffffffffffffffff168152602001908152602001600020905081816000018190555083816001019080519060200190610c6592919061144f565b5060008160020181905550848160030160006101000a81548173ffffffffffffffffffffffffffffffffffffffff021916908373ffffffffffffffffffffffffffffffffffffffff16021790555082816004019080519060200190610ccb92919061144f565b506003859080600181540180825580915050600190039060005260206000200160009091909190916101000a81548173ffffffffffffffffffffffffffffffffffffffff021916908373ffffffffffffffffffffffffffffffffffffffff160217905550817f270d066d6908c46c7a09be4e4e0ac84482adb96b281ad54d70a8df76c6ab356c8583600201548887604051610d699493929190611db7565b60405180910390a25050505050565b600260009054906101000a900473ffffffffffffffffffffffffffffffffffffffff1681565b6004602052806000526040600020600091509050806000015490806001018054610dc790611c28565b80601f0160208091040260200160405190810160405280929190818152602001828054610df390611c28565b8015610e405780601f10610e1557610100808354040283529160200191610e40565b820191906000526020600020905b815481529060010190602001808311610e2357829003601f168201915b5050505050908060020154908060030160009054906101000a900473ffffffffffffffffffffffffffffffffffffffff1690806004018054610e8190611c28565b80601f0160208091040260200160405190810160405280929190818152602001828054610ead90611c28565b8015610efa5780601f10610ecf57610100808354040283529160200191610efa565b820191906000526020600020905b815481529060010190602001808311610edd57829003601f168201915b5050505050905085565b6000606060006060600080600760008873ffffffffffffffffffffffffffffffffffffffff1673ffffffffffffffffffffffffffffffffffffffff16815260200190815260200160002060000154600760008973ffffffffffffffffffffffffffffffffffffffff1673ffffffffffffffffffffffffffffffffffffffff168152602001908152602001600020600101600760008a73ffffffffffffffffffffffffffffffffffffffff1673ffffffffffffffffffffffffffffffffffffffff16815260200190815260200160002060020160009054906101000a900473ffffffffffffffffffffffffffffffffffffffff16600760008b73ffffffffffffffffffffffffffffffffffffffff1673ffffffffffffffffffffffffffffffffffffffff168152602001908152602001600020600601600760008c73ffffffffffffffffffffffffffffffffffffffff1673ffffffffffffffffffffffffffffffffffffffff16815260200190815260200160002060030154600760008d73ffffffffffffffffffffffffffffffffffffffff1673ffffffffffffffffffffffffffffffffffffffff16815260200190815260200160002060040160009054906101000a900460ff168480546110d890611c28565b80601f016020809104026020016040519081016040528092919081815260200182805461110490611c28565b80156111515780601f1061112657610100808354040283529160200191611151565b820191906000526020600020905b81548152906001019060200180831161113457829003601f168201915b5050505050945082805461116490611c28565b80601f016020809104026020016040519081016040528092919081815260200182805461119090611c28565b80156111dd5780601f106111b2576101008083540402835291602001916111dd565b820191906000526020600020905b8154815290600101906020018083116111c057829003601f168201915b5050505050925095509550955095509550955091939550919395565b600760205280600052604060002060009150905080600001549080600101805461122290611c28565b80601f016020809104026020016040519081016040528092919081815260200182805461124e90611c28565b801561129b5780601f106112705761010080835404028352916020019161129b565b820191906000526020600020905b81548152906001019060200180831161127e57829003601f168201915b5050505050908060020160009054906101000a900473ffffffffffffffffffffffffffffffffffffffff16908060030154908060040160009054906101000a900460ff16908060050154908060060180546112f590611c28565b80601f016020809104026020016040519081016040528092919081815260200182805461132190611c28565b801561136e5780601f106113435761010080835404028352916020019161136e565b820191906000526020600020905b81548152906001019060200180831161135157829003601f168201915b5050505050905087565b60018060000154905081565b6060600680548060200260200160405190810160405280929190818152602001828054801561140857602002820191906000526020600020905b8160009054906101000a900473ffffffffffffffffffffffffffffffffffffffff1673ffffffffffffffffffffffffffffffffffffffff16815260200190600101908083116113be575b5050505050905090565b60008060000154905081565b6000600380549050905090565b6001816000016000828254019250508190555050565b600081600001549050919050565b82805461145b90611c28565b90600052602060002090601f01602090048101928261147d57600085556114c4565b82601f1061149657805160ff19168380011785556114c4565b828001600101855582156114c4579182015b828111156114c35782518255916020019190600101906114a8565b5b5090506114d191906114d5565b5090565b5b808211156114ee5760008160009055506001016114d6565b5090565b6000819050919050565b611505816114f2565b82525050565b600060208201905061152060008301846114fc565b92915050565b6000604051905090565b600080fd5b600080fd5b600073ffffffffffffffffffffffffffffffffffffffff82169050919050565b60006115658261153a565b9050919050565b6115758161155a565b811461158057600080fd5b50565b6000813590506115928161156c565b92915050565b600080fd5b600080fd5b6000601f19601f8301169050919050565b7f4e487b7100000000000000000000000000000000000000000000000000000000600052604160045260246000fd5b6115eb826115a2565b810181811067ffffffffffffffff8211171561160a576116096115b3565b5b80604052505050565b600061161d611526565b905061162982826115e2565b919050565b600067ffffffffffffffff821115611649576116486115b3565b5b611652826115a2565b9050602081019050919050565b82818337600083830152505050565b600061168161167c8461162e565b611613565b90508281526020810184848401111561169d5761169c61159d565b5b6116a884828561165f565b509392505050565b600082601f8301126116c5576116c4611598565b5b81356116d584826020860161166e565b91505092915050565b6000806000606084860312156116f7576116f6611530565b5b600061170586828701611583565b935050602084013567ffffffffffffffff81111561172657611725611535565b5b611732868287016116b0565b925050604084013567ffffffffffffffff81111561175357611752611535565b5b61175f868287016116b0565b9150509250925092565b60006020828403121561177f5761177e611530565b5b600061178d84828501611583565b91505092915050565b600081519050919050565b600082825260208201905092915050565b60005b838110156117d05780820151818401526020810190506117b5565b838111156117df576000848401525b50505050565b60006117f082611796565b6117fa81856117a1565b935061180a8185602086016117b2565b611813816115a2565b840191505092915050565b6118278161155a565b82525050565b600060a082019050818103600083015261184781886117e5565b905061185660208301876114fc565b61186360408301866114fc565b818103606083015261187581856117e5565b9050611884608083018461181e565b9695505050505050565b600081519050919050565b600082825260208201905092915050565b6000819050602082019050919050565b6118c38161155a565b82525050565b60006118d583836118ba565b60208301905092915050565b6000602082019050919050565b60006118f98261188e565b6119038185611899565b935061190e836118aa565b8060005b8381101561193f57815161192688826118c9565b9750611931836118e1565b925050600181019050611912565b5085935050505092915050565b6000602082019050818103600083015261196681846118ee565b905092915050565b611977816114f2565b811461198257600080fd5b50565b6000813590506119948161196e565b92915050565b6000602082840312156119b0576119af611530565b5b60006119be84828501611985565b91505092915050565b60006020820190506119dc600083018461181e565b92915050565b600080604083850312156119f9576119f8611530565b5b6000611a0785828601611583565b9250506020611a1885828601611985565b9150509250929050565b600060a082019050611a3760008301886114fc565b8181036020830152611a4981876117e5565b9050611a5860408301866114fc565b611a65606083018561181e565b8181036080830152611a7781846117e5565b90509695505050505050565b60008115159050919050565b611a9881611a83565b82525050565b600060c082019050611ab360008301896114fc565b8181036020830152611ac581886117e5565b9050611ad4604083018761181e565b8181036060830152611ae681866117e5565b9050611af560808301856114fc565b611b0260a0830184611a8f565b979650505050505050565b600060e082019050611b22600083018a6114fc565b8181036020830152611b3481896117e5565b9050611b43604083018861181e565b611b5060608301876114fc565b611b5d6080830186611a8f565b611b6a60a08301856114fc565b81810360c0830152611b7c81846117e5565b905098975050505050505050565b600060c0820190508181036000830152611ba481896117e5565b9050611bb3602083018861181e565b611bc060408301876114fc565b611bcd6060830186611a8f565b611bda60808301856114fc565b81810360a0830152611bec81846117e5565b9050979650505050505050565b7f4e487b7100000000000000000000000000000000000000000000000000000000600052602260045260246000fd5b60006002820490506001821680611c4057607f821691505b60208210811415611c5457611c53611bf9565b5b50919050565b7f596f75206861766520616c726561647920766f7465642e000000000000000000600082015250565b6000611c906017836117a1565b9150611c9b82611c5a565b602082019050919050565b60006020820190508181036000830152611cbf81611c83565b9050919050565b7f596f7520646f6e7420686176652074686520726967687420746f20766f74652e600082015250565b6000611cfc6020836117a1565b9150611d0782611cc6565b602082019050919050565b60006020820190508181036000830152611d2b81611cef565b9050919050565b7f4e487b7100000000000000000000000000000000000000000000000000000000600052601160045260246000fd5b6000611d6c826114f2565b9150611d77836114f2565b9250827fffffffffffffffffffffffffffffffffffffffffffffffffffffffffffffffff03821115611dac57611dab611d32565b5b828201905092915050565b60006080820190508181036000830152611dd181876117e5565b9050611de060208301866114fc565b611ded604083018561181e565b8181036060830152611dff81846117e5565b90509594505050505056fea2646970667358221220ff51a26ec58c8e1e2c2ab5d0977c8f3866d4f4a890fe56e70b2f4de0ed4bdfac64736f6c63430008090033",
  "linkReferences": {},
  "deployedLinkReferences": {}
}