{
  "_format": "hh-sol-artifact-1",
  "contractName": "Voting",
  "sourceName": "contracts/Voting.sol",
  "abi": [
    {
      "inputs": [],
      "stateMutability": "nonpayable",
      "type": "constructor"
    },
    {
      "anonymous": false,
      "inputs": [
        {
          "indexed": true,
          "internalType": "uint256",
          "name": "candidateId",
          "type": "uint256"
        },
        {
          "indexed": false,
          "internalType": "string",
          "name": "candidate_name",
          "type": "string"
        },
        {
          "indexed": false,
          "internalType": "string",
          "name": "candidate_image",
          "type": "string"
        },
        {
          "indexed": false,
          "internalType": "uint256",
          "name": "voteCount",
          "type": "uint256"
        },
        {
          "indexed": false,
          "internalType": "address",
          "name": "_address",
          "type": "address"
        },
        {
          "indexed": false,
          "internalType": "string",
          "name": "candidate_ipfs",
          "type": "string"
        }
      ],
      "name": "CandidateCreate",
      "type": "event"
    },
    {
      "anonymous": false,
      "inputs": [
        {
          "indexed": true,
          "internalType": "uint256",
          "name": "voter_voterId",
          "type": "uint256"
        },
        {
          "indexed": false,
          "internalType": "string",
          "name": "voter_name",
          "type": "string"
        },
        {
          "indexed": false,
          "internalType": "address",
          "name": "voter_address",
          "type": "address"
        },
        {
          "indexed": false,
          "internalType": "uint256",
          "name": "voter_allowed",
          "type": "uint256"
        },
        {
          "indexed": false,
          "internalType": "bool",
          "name": "voter_voted",
          "type": "bool"
        },
        {
          "indexed": false,
          "internalType": "uint256",
          "name": "voter_vote",
          "type": "uint256"
        },
        {
          "indexed": false,
          "internalType": "string",
          "name": "voter_ipfs",
          "type": "string"
        }
      ],
      "name": "VoterCreate",
      "type": "event"
    },
    {
      "inputs": [],
      "name": "_candidateId",
      "outputs": [
        {
          "internalType": "uint256",
          "name": "_value",
          "type": "uint256"
        }
      ],
      "stateMutability": "view",
      "type": "function"
    },
    {
      "inputs": [],
      "name": "_voterId",
      "outputs": [
        {
          "internalType": "uint256",
          "name": "_value",
          "type": "uint256"
        }
      ],
      "stateMutability": "view",
      "type": "function"
    },
    {
      "inputs": [
        {
          "internalType": "uint256",
          "name": "",
          "type": "uint256"
        }
      ],
      "name": "candidateAddress",
      "outputs": [
        {
          "internalType": "address",
          "name": "",
          "type": "address"
        }
      ],
      "stateMutability": "view",
      "type": "function"
    },
    {
      "inputs": [
        {
          "internalType": "address",
          "name": "",
          "type": "address"
        }
      ],
      "name": "candidates",
      "outputs": [
        {
          "internalType": "uint256",
          "name": "candidateId",
          "type": "uint256"
        },
        {
          "internalType": "string",
          "name": "candidate_name",
          "type": "string"
        },
        {
          "internalType": "string",
          "name": "candidate_image",
          "type": "string"
        },
        {
          "internalType": "uint256",
          "name": "voteCount",
          "type": "uint256"
        },
        {
          "internalType": "address",
          "name": "_address",
          "type": "address"
        },
        {
          "internalType": "string",
          "name": "candidate_ipfs",
          "type": "string"
        }
      ],
      "stateMutability": "view",
      "type": "function"
    },
    {
      "inputs": [],
      "name": "getCandidate",
      "outputs": [
        {
          "internalType": "address[]",
          "name": "",
          "type": "address[]"
        }
      ],
      "stateMutability": "view",
      "type": "function"
    },
    {
      "inputs": [],
      "name": "getCandidateLength",
      "outputs": [
        {
          "internalType": "uint256",
          "name": "",
          "type": "uint256"
        }
      ],
      "stateMutability": "view",
      "type": "function"
    },
    {
      "inputs": [
        {
          "internalType": "address",
          "name": "_address",
          "type": "address"
        }
      ],
      "name": "getCandidateinfo",
      "outputs": [
        {
          "internalType": "string",
          "name": "",
          "type": "string"
        },
        {
          "internalType": "uint256",
          "name": "",
          "type": "uint256"
        },
        {
          "internalType": "string",
          "name": "",
          "type": "string"
        },
        {
          "internalType": "uint256",
          "name": "",
          "type": "uint256"
        },
        {
          "internalType": "string",
          "name": "",
          "type": "string"
        },
        {
          "internalType": "address",
          "name": "",
          "type": "address"
        }
      ],
      "stateMutability": "view",
      "type": "function"
    },
    {
      "inputs": [],
      "name": "getVotedList",
      "outputs": [
        {
          "internalType": "address[]",
          "name": "",
          "type": "address[]"
        }
      ],
      "stateMutability": "view",
      "type": "function"
    },
    {
      "inputs": [],
      "name": "getVoterLength",
      "outputs": [
        {
          "internalType": "uint256",
          "name": "",
          "type": "uint256"
        }
      ],
      "stateMutability": "view",
      "type": "function"
    },
    {
      "inputs": [],
      "name": "getVoterList",
      "outputs": [
        {
          "internalType": "address[]",
          "name": "",
          "type": "address[]"
        }
      ],
      "stateMutability": "view",
      "type": "function"
    },
    {
      "inputs": [
        {
          "internalType": "address",
          "name": "_address",
          "type": "address"
        },
        {
          "internalType": "string",
          "name": "_name",
          "type": "string"
        },
        {
          "internalType": "string",
          "name": "_image",
          "type": "string"
        },
        {
          "internalType": "string",
          "name": "_ipfs",
          "type": "string"
        }
      ],
      "name": "setCandidate",
      "outputs": [],
      "stateMutability": "nonpayable",
      "type": "function"
    },
    {
      "inputs": [
        {
          "internalType": "address",
          "name": "_address",
          "type": "address"
        },
        {
          "internalType": "string",
          "name": "_name",
          "type": "string"
        },
        {
          "internalType": "string",
          "name": "_ipfs",
          "type": "string"
        }
      ],
      "name": "setVoter",
      "outputs": [],
      "stateMutability": "nonpayable",
      "type": "function"
    },
    {
      "inputs": [
        {
          "internalType": "address",
          "name": "_candidateAddress",
          "type": "address"
        }
      ],
      "name": "vote",
      "outputs": [],
      "stateMutability": "nonpayable",
      "type": "function"
    },
    {
      "inputs": [
        {
          "internalType": "uint256",
          "name": "",
          "type": "uint256"
        }
      ],
      "name": "votedVoters",
      "outputs": [
        {
          "internalType": "address",
          "name": "",
          "type": "address"
        }
      ],
      "stateMutability": "view",
      "type": "function"
    },
    {
      "inputs": [
        {
          "internalType": "address",
          "name": "",
          "type": "address"
        }
      ],
      "name": "voters",
      "outputs": [
        {
          "internalType": "uint256",
          "name": "voter_voterId",
          "type": "uint256"
        },
        {
          "internalType": "string",
          "name": "voter_name",
          "type": "string"
        },
        {
          "internalType": "address",
          "name": "voter_address",
          "type": "address"
        },
        {
          "internalType": "uint256",
          "name": "voter_allowed",
          "type": "uint256"
        },
        {
          "internalType": "bool",
          "name": "voter_voted",
          "type": "bool"
        },
        {
          "internalType": "uint256",
          "name": "voter_vote",
          "type": "uint256"
        },
        {
          "internalType": "string",
          "name": "voter_ipfs",
          "type": "string"
        }
      ],
      "stateMutability": "view",
      "type": "function"
    },
    {
      "inputs": [
        {
          "internalType": "uint256",
          "name": "",
          "type": "uint256"
        }
      ],
      "name": "votersAddress",
      "outputs": [
        {
          "internalType": "address",
          "name": "",
          "type": "address"
        }
      ],
      "stateMutability": "view",
      "type": "function"
    },
    {
      "inputs": [],
      "name": "votingOwner",
      "outputs": [
        {
          "internalType": "address",
          "name": "",
          "type": "address"
        }
      ],
      "stateMutability": "view",
      "type": "function"
    }
  ],
  "bytecode": "0x608060405234801561001057600080fd5b5033600260006101000a81548173ffffffffffffffffffffffffffffffffffffffff021916908373ffffffffffffffffffffffffffffffffffffffff160217905550611ecc806100616000396000f3fe608060405234801561001057600080fd5b506004361061010b5760003560e01c806370218b85116100a2578063a3ec138d11610071578063a3ec138d146102d6578063a73889671461030c578063b28d92ae1461032a578063b9be315214610348578063f7522a83146103665761010b565b806370218b85146102355780637831ffb314610253578063809163e3146102835780638ab66a90146102a15761010b565b80633970afa9116100de5780633970afa91461019b5780633a88251a146101b957806343242daa146101e95780636dd7d8ea146102195761010b565b806305ad45a4146101105780632348206a1461012e5780632ebd2d6a1461014a57806337f15e7d1461017f575b600080fd5b610118610384565b6040516101259190611474565b60405180910390f35b61014860048036038101906101439190611647565b610391565b005b610164600480360381019061015f91906116d2565b610602565b60405161017696959493929190611796565b60405180910390f35b6101996004803603810190610194919061180c565b610976565b005b6101a3610bb1565b6040516101b09190611985565b60405180910390f35b6101d360048036038101906101ce91906119d3565b610c3f565b6040516101e09190611a00565b60405180910390f35b61020360048036038101906101fe91906119d3565b610c7e565b6040516102109190611a00565b60405180910390f35b610233600480360381019061022e91906116d2565b610cbd565b005b61023d610e7b565b60405161024a9190611985565b60405180910390f35b61026d600480360381019061026891906119d3565b610f09565b60405161027a9190611a00565b60405180910390f35b61028b610f48565b6040516102989190611a00565b60405180910390f35b6102bb60048036038101906102b691906116d2565b610f6e565b6040516102cd96959493929190611a1b565b60405180910390f35b6102f060048036038101906102eb91906116d2565b611162565b6040516103039796959493929190611aac565b60405180910390f35b6103146112e1565b6040516103219190611474565b60405180910390f35b6103326112ed565b60405161033f9190611985565b60405180910390f35b61035061137b565b60405161035d9190611474565b60405180910390f35b61036e611387565b60405161037b9190611474565b60405180910390f35b6000600680549050905090565b3373ffffffffffffffffffffffffffffffffffffffff16600260009054906101000a900473ffffffffffffffffffffffffffffffffffffffff1673ffffffffffffffffffffffffffffffffffffffff1614610421576040517f08c379a000000000000000000000000000000000000000000000000000000000815260040161041890611b75565b60405180910390fd5b61042b6000611394565b600061043760006113aa565b90506000600760008673ffffffffffffffffffffffffffffffffffffffff1673ffffffffffffffffffffffffffffffffffffffff1681526020019081526020016000209050600081600301541461048d57600080fd5b60018160030181905550818160000181905550838160010190805190602001906104b89291906113b8565b50848160020160006101000a81548173ffffffffffffffffffffffffffffffffffffffff021916908373ffffffffffffffffffffffffffffffffffffffff16021790555060008160040160006101000a81548160ff0219169083151502179055506103e881600501819055508281600601908051906020019061053c9291906113b8565b506006859080600181540180825580915050600190039060005260206000200160009091909190916101000a81548173ffffffffffffffffffffffffffffffffffffffff021916908373ffffffffffffffffffffffffffffffffffffffff160217905550817f68ea7283416d0b6b5f515e69d433621b49f3b2853e2bd5f5640f6f1c47ce5be1858784600301548560040160009054906101000a900460ff168660050154896040516105f396959493929190611b95565b60405180910390a25050505050565b606060006060600060606000600460008873ffffffffffffffffffffffffffffffffffffffff1673ffffffffffffffffffffffffffffffffffffffff168152602001908152602001600020600101600460008973ffffffffffffffffffffffffffffffffffffffff1673ffffffffffffffffffffffffffffffffffffffff16815260200190815260200160002060000154600460008a73ffffffffffffffffffffffffffffffffffffffff1673ffffffffffffffffffffffffffffffffffffffff168152602001908152602001600020600201600460008b73ffffffffffffffffffffffffffffffffffffffff1673ffffffffffffffffffffffffffffffffffffffff16815260200190815260200160002060030154600460008c73ffffffffffffffffffffffffffffffffffffffff1673ffffffffffffffffffffffffffffffffffffffff168152602001908152602001600020600501600460008d73ffffffffffffffffffffffffffffffffffffffff1673ffffffffffffffffffffffffffffffffffffffff16815260200190815260200160002060040160009054906101000a900473ffffffffffffffffffffffffffffffffffffffff168580546107c990611c33565b80601f01602080910402602001604051908101604052809291908181526020018280546107f590611c33565b80156108425780601f1061081757610100808354040283529160200191610842565b820191906000526020600020905b81548152906001019060200180831161082557829003601f168201915b5050505050955083805461085590611c33565b80601f016020809104026020016040519081016040528092919081815260200182805461088190611c33565b80156108ce5780601f106108a3576101008083540402835291602001916108ce565b820191906000526020600020905b8154815290600101906020018083116108b157829003601f168201915b505050505093508180546108e190611c33565b80601f016020809104026020016040519081016040528092919081815260200182805461090d90611c33565b801561095a5780601f1061092f5761010080835404028352916020019161095a565b820191906000526020600020905b81548152906001019060200180831161093d57829003601f168201915b5050505050915095509550955095509550955091939550919395565b3373ffffffffffffffffffffffffffffffffffffffff16600260009054906101000a900473ffffffffffffffffffffffffffffffffffffffff1673ffffffffffffffffffffffffffffffffffffffff1614610a06576040517f08c379a00000000000000000000000000000000000000000000000000000000081526004016109fd90611cb1565b60405180910390fd5b610a106001611394565b6000610a1c60016113aa565b90506000600460008773ffffffffffffffffffffffffffffffffffffffff1673ffffffffffffffffffffffffffffffffffffffff168152602001908152602001600020905081816000018190555084816001019080519060200190610a829291906113b8565b5083816002019080519060200190610a9b9291906113b8565b5060008160030181905550858160040160006101000a81548173ffffffffffffffffffffffffffffffffffffffff021916908373ffffffffffffffffffffffffffffffffffffffff16021790555082816005019080519060200190610b019291906113b8565b506003869080600181540180825580915050600190039060005260206000200160009091909190916101000a81548173ffffffffffffffffffffffffffffffffffffffff021916908373ffffffffffffffffffffffffffffffffffffffff160217905550817f90f56c84b4b2e24220b751da6de9e56937478e7f932b8b730f066eb1e972bd69868684600301548a88604051610ba1959493929190611cd1565b60405180910390a2505050505050565b60606005805480602002602001604051908101604052809291908181526020018280548015610c3557602002820191906000526020600020905b8160009054906101000a900473ffffffffffffffffffffffffffffffffffffffff1673ffffffffffffffffffffffffffffffffffffffff1681526020019060010190808311610beb575b5050505050905090565b60038181548110610c4f57600080fd5b906000526020600020016000915054906101000a900473ffffffffffffffffffffffffffffffffffffffff1681565b60068181548110610c8e57600080fd5b906000526020600020016000915054906101000a900473ffffffffffffffffffffffffffffffffffffffff1681565b6000600760003373ffffffffffffffffffffffffffffffffffffffff1673ffffffffffffffffffffffffffffffffffffffff16815260200190815260200160002090508060040160009054906101000a900460ff1615610d52576040517f08c379a0000000000000000000000000000000000000000000000000000000008152600401610d4990611d85565b60405180910390fd5b600081600301541415610d9a576040517f08c379a0000000000000000000000000000000000000000000000000000000008152600401610d9190611df1565b60405180910390fd5b60018160040160006101000a81548160ff0219169083151502179055506005339080600181540180825580915050600190039060005260206000200160009091909190916101000a81548173ffffffffffffffffffffffffffffffffffffffff021916908373ffffffffffffffffffffffffffffffffffffffff1602179055508060030154600460008473ffffffffffffffffffffffffffffffffffffffff1673ffffffffffffffffffffffffffffffffffffffff1681526020019081526020016000206003016000828254610e709190611e40565b925050819055505050565b60606003805480602002602001604051908101604052809291908181526020018280548015610eff57602002820191906000526020600020905b8160009054906101000a900473ffffffffffffffffffffffffffffffffffffffff1673ffffffffffffffffffffffffffffffffffffffff1681526020019060010190808311610eb5575b5050505050905090565b60058181548110610f1957600080fd5b906000526020600020016000915054906101000a900473ffffffffffffffffffffffffffffffffffffffff1681565b600260009054906101000a900473ffffffffffffffffffffffffffffffffffffffff1681565b6004602052806000526040600020600091509050806000015490806001018054610f9790611c33565b80601f0160208091040260200160405190810160405280929190818152602001828054610fc390611c33565b80156110105780601f10610fe557610100808354040283529160200191611010565b820191906000526020600020905b815481529060010190602001808311610ff357829003601f168201915b50505050509080600201805461102590611c33565b80601f016020809104026020016040519081016040528092919081815260200182805461105190611c33565b801561109e5780601f106110735761010080835404028352916020019161109e565b820191906000526020600020905b81548152906001019060200180831161108157829003601f168201915b5050505050908060030154908060040160009054906101000a900473ffffffffffffffffffffffffffffffffffffffff16908060050180546110df90611c33565b80601f016020809104026020016040519081016040528092919081815260200182805461110b90611c33565b80156111585780601f1061112d57610100808354040283529160200191611158565b820191906000526020600020905b81548152906001019060200180831161113b57829003601f168201915b5050505050905086565b600760205280600052604060002060009150905080600001549080600101805461118b90611c33565b80601f01602080910402602001604051908101604052809291908181526020018280546111b790611c33565b80156112045780601f106111d957610100808354040283529160200191611204565b820191906000526020600020905b8154815290600101906020018083116111e757829003601f168201915b5050505050908060020160009054906101000a900473ffffffffffffffffffffffffffffffffffffffff16908060030154908060040160009054906101000a900460ff169080600501549080600601805461125e90611c33565b80601f016020809104026020016040519081016040528092919081815260200182805461128a90611c33565b80156112d75780601f106112ac576101008083540402835291602001916112d7565b820191906000526020600020905b8154815290600101906020018083116112ba57829003601f168201915b5050505050905087565b60018060000154905081565b6060600680548060200260200160405190810160405280929190818152602001828054801561137157602002820191906000526020600020905b8160009054906101000a900473ffffffffffffffffffffffffffffffffffffffff1673ffffffffffffffffffffffffffffffffffffffff1681526020019060010190808311611327575b5050505050905090565b60008060000154905081565b6000600380549050905090565b6001816000016000828254019250508190555050565b600081600001549050919050565b8280546113c490611c33565b90600052602060002090601f0160209004810192826113e6576000855561142d565b82601f106113ff57805160ff191683800117855561142d565b8280016001018555821561142d579182015b8281111561142c578251825591602001919060010190611411565b5b50905061143a919061143e565b5090565b5b8082111561145757600081600090555060010161143f565b5090565b6000819050919050565b61146e8161145b565b82525050565b60006020820190506114896000830184611465565b92915050565b6000604051905090565b600080fd5b600080fd5b600073ffffffffffffffffffffffffffffffffffffffff82169050919050565b60006114ce826114a3565b9050919050565b6114de816114c3565b81146114e957600080fd5b50565b6000813590506114fb816114d5565b92915050565b600080fd5b600080fd5b6000601f19601f8301169050919050565b7f4e487b7100000000000000000000000000000000000000000000000000000000600052604160045260246000fd5b6115548261150b565b810181811067ffffffffffffffff821117156115735761157261151c565b5b80604052505050565b600061158661148f565b9050611592828261154b565b919050565b600067ffffffffffffffff8211156115b2576115b161151c565b5b6115bb8261150b565b9050602081019050919050565b82818337600083830152505050565b60006115ea6115e584611597565b61157c565b90508281526020810184848401111561160657611605611506565b5b6116118482856115c8565b509392505050565b600082601f83011261162e5761162d611501565b5b813561163e8482602086016115d7565b91505092915050565b6000806000606084860312156116605761165f611499565b5b600061166e868287016114ec565b935050602084013567ffffffffffffffff81111561168f5761168e61149e565b5b61169b86828701611619565b925050604084013567ffffffffffffffff8111156116bc576116bb61149e565b5b6116c886828701611619565b9150509250925092565b6000602082840312156116e8576116e7611499565b5b60006116f6848285016114ec565b91505092915050565b600081519050919050565b600082825260208201905092915050565b60005b8381101561173957808201518184015260208101905061171e565b83811115611748576000848401525b50505050565b6000611759826116ff565b611763818561170a565b935061177381856020860161171b565b61177c8161150b565b840191505092915050565b611790816114c3565b82525050565b600060c08201905081810360008301526117b0818961174e565b90506117bf6020830188611465565b81810360408301526117d1818761174e565b90506117e06060830186611465565b81810360808301526117f2818561174e565b905061180160a0830184611787565b979650505050505050565b6000806000806080858703121561182657611825611499565b5b6000611834878288016114ec565b945050602085013567ffffffffffffffff8111156118555761185461149e565b5b61186187828801611619565b935050604085013567ffffffffffffffff8111156118825761188161149e565b5b61188e87828801611619565b925050606085013567ffffffffffffffff8111156118af576118ae61149e565b5b6118bb87828801611619565b91505092959194509250565b600081519050919050565b600082825260208201905092915050565b6000819050602082019050919050565b6118fc816114c3565b82525050565b600061190e83836118f3565b60208301905092915050565b6000602082019050919050565b6000611932826118c7565b61193c81856118d2565b9350611947836118e3565b8060005b8381101561197857815161195f8882611902565b975061196a8361191a565b92505060018101905061194b565b5085935050505092915050565b6000602082019050818103600083015261199f8184611927565b905092915050565b6119b08161145b565b81146119bb57600080fd5b50565b6000813590506119cd816119a7565b92915050565b6000602082840312156119e9576119e8611499565b5b60006119f7848285016119be565b91505092915050565b6000602082019050611a156000830184611787565b92915050565b600060c082019050611a306000830189611465565b8181036020830152611a42818861174e565b90508181036040830152611a56818761174e565b9050611a656060830186611465565b611a726080830185611787565b81810360a0830152611a84818461174e565b9050979650505050505050565b60008115159050919050565b611aa681611a91565b82525050565b600060e082019050611ac1600083018a611465565b8181036020830152611ad3818961174e565b9050611ae26040830188611787565b611aef6060830187611465565b611afc6080830186611a9d565b611b0960a0830185611465565b81810360c0830152611b1b818461174e565b905098975050505050505050565b7f4f6e6c79206f776e65722063616e2061646420766f746572732e000000000000600082015250565b6000611b5f601a8361170a565b9150611b6a82611b29565b602082019050919050565b60006020820190508181036000830152611b8e81611b52565b9050919050565b600060c0820190508181036000830152611baf818961174e565b9050611bbe6020830188611787565b611bcb6040830187611465565b611bd86060830186611a9d565b611be56080830185611465565b81810360a0830152611bf7818461174e565b9050979650505050505050565b7f4e487b7100000000000000000000000000000000000000000000000000000000600052602260045260246000fd5b60006002820490506001821680611c4b57607f821691505b60208210811415611c5f57611c5e611c04565b5b50919050565b7f4f6e6c79204f776e65722063616e207365742063616e646964617465732e0000600082015250565b6000611c9b601e8361170a565b9150611ca682611c65565b602082019050919050565b60006020820190508181036000830152611cca81611c8e565b9050919050565b600060a0820190508181036000830152611ceb818861174e565b90508181036020830152611cff818761174e565b9050611d0e6040830186611465565b611d1b6060830185611787565b8181036080830152611d2d818461174e565b90509695505050505050565b7f596f75206861766520616c726561647920766f7465642e000000000000000000600082015250565b6000611d6f60178361170a565b9150611d7a82611d39565b602082019050919050565b60006020820190508181036000830152611d9e81611d62565b9050919050565b7f596f7520646f6e7420686176652074686520726967687420746f20766f74652e600082015250565b6000611ddb60208361170a565b9150611de682611da5565b602082019050919050565b60006020820190508181036000830152611e0a81611dce565b9050919050565b7f4e487b7100000000000000000000000000000000000000000000000000000000600052601160045260246000fd5b6000611e4b8261145b565b9150611e568361145b565b9250827fffffffffffffffffffffffffffffffffffffffffffffffffffffffffffffffff03821115611e8b57611e8a611e11565b5b82820190509291505056fea264697066735822122024cde5c848a9869c77ba6a53991dbb7df814d0053a441a057da697d9331cefa564736f6c63430008090033",
  "linkReferences": {},
  "deployedLinkReferences": {}
}