{
  "_format": "hh-sol-artifact-1",
  "contractName": "Voting",
  "sourceName": "contracts/Voting.sol",
  "abi": [
    {
      "inputs": [],
      "stateMutability": "nonpayable",
      "type": "constructor"
    },
    {
      "anonymous": false,
      "inputs": [
        {
          "indexed": true,
          "internalType": "uint256",
          "name": "candidateId",
          "type": "uint256"
        },
        {
          "indexed": false,
          "internalType": "string",
          "name": "candidate_name",
          "type": "string"
        },
        {
          "indexed": false,
          "internalType": "string",
          "name": "candidate_image",
          "type": "string"
        },
        {
          "indexed": false,
          "internalType": "uint256",
          "name": "voteCount",
          "type": "uint256"
        },
        {
          "indexed": false,
          "internalType": "address",
          "name": "_address",
          "type": "address"
        },
        {
          "indexed": false,
          "internalType": "string",
          "name": "candidate_ipfs",
          "type": "string"
        }
      ],
      "name": "CandidateCreate",
      "type": "event"
    },
    {
      "anonymous": false,
      "inputs": [
        {
          "indexed": true,
          "internalType": "uint256",
          "name": "voter_voterId",
          "type": "uint256"
        },
        {
          "indexed": false,
          "internalType": "string",
          "name": "voter_name",
          "type": "string"
        },
        {
          "indexed": false,
          "internalType": "address",
          "name": "voter_address",
          "type": "address"
        },
        {
          "indexed": false,
          "internalType": "uint256",
          "name": "voter_allowed",
          "type": "uint256"
        },
        {
          "indexed": false,
          "internalType": "bool",
          "name": "voter_voted",
          "type": "bool"
        },
        {
          "indexed": false,
          "internalType": "uint256",
          "name": "voter_vote",
          "type": "uint256"
        },
        {
          "indexed": false,
          "internalType": "string",
          "name": "voter_ipfs",
          "type": "string"
        }
      ],
      "name": "VoterCreate",
      "type": "event"
    },
    {
      "inputs": [],
      "name": "_candidateId",
      "outputs": [
        {
          "internalType": "uint256",
          "name": "_value",
          "type": "uint256"
        }
      ],
      "stateMutability": "view",
      "type": "function"
    },
    {
      "inputs": [],
      "name": "_voterId",
      "outputs": [
        {
          "internalType": "uint256",
          "name": "_value",
          "type": "uint256"
        }
      ],
      "stateMutability": "view",
      "type": "function"
    },
    {
      "inputs": [
        {
          "internalType": "uint256",
          "name": "",
          "type": "uint256"
        }
      ],
      "name": "candidateAddress",
      "outputs": [
        {
          "internalType": "address",
          "name": "",
          "type": "address"
        }
      ],
      "stateMutability": "view",
      "type": "function"
    },
    {
      "inputs": [
        {
          "internalType": "address",
          "name": "",
          "type": "address"
        }
      ],
      "name": "candidates",
      "outputs": [
        {
          "internalType": "uint256",
          "name": "candidateId",
          "type": "uint256"
        },
        {
          "internalType": "string",
          "name": "candidate_name",
          "type": "string"
        },
        {
          "internalType": "string",
          "name": "candidate_image",
          "type": "string"
        },
        {
          "internalType": "uint256",
          "name": "voteCount",
          "type": "uint256"
        },
        {
          "internalType": "address",
          "name": "_address",
          "type": "address"
        },
        {
          "internalType": "string",
          "name": "candidate_ipfs",
          "type": "string"
        }
      ],
      "stateMutability": "view",
      "type": "function"
    },
    {
      "inputs": [],
      "name": "getCandidate",
      "outputs": [
        {
          "internalType": "address[]",
          "name": "",
          "type": "address[]"
        }
      ],
      "stateMutability": "view",
      "type": "function"
    },
    {
      "inputs": [],
      "name": "getCandidateLength",
      "outputs": [
        {
          "internalType": "uint256",
          "name": "",
          "type": "uint256"
        }
      ],
      "stateMutability": "view",
      "type": "function"
    },
    {
      "inputs": [
        {
          "internalType": "address",
          "name": "_address",
          "type": "address"
        }
      ],
      "name": "getCandidateinfo",
      "outputs": [
        {
          "internalType": "string",
          "name": "",
          "type": "string"
        },
        {
          "internalType": "uint256",
          "name": "",
          "type": "uint256"
        },
        {
          "internalType": "string",
          "name": "",
          "type": "string"
        },
        {
          "internalType": "uint256",
          "name": "",
          "type": "uint256"
        },
        {
          "internalType": "string",
          "name": "",
          "type": "string"
        },
        {
          "internalType": "address",
          "name": "",
          "type": "address"
        }
      ],
      "stateMutability": "view",
      "type": "function"
    },
    {
      "inputs": [],
      "name": "getVotedList",
      "outputs": [
        {
          "internalType": "address[]",
          "name": "",
          "type": "address[]"
        }
      ],
      "stateMutability": "view",
      "type": "function"
    },
    {
      "inputs": [
        {
          "internalType": "address",
          "name": "_address",
          "type": "address"
        }
      ],
      "name": "getVoterData",
      "outputs": [
        {
          "internalType": "uint256",
          "name": "",
          "type": "uint256"
        },
        {
          "internalType": "string",
          "name": "",
          "type": "string"
        },
        {
          "internalType": "address",
          "name": "",
          "type": "address"
        },
        {
          "internalType": "string",
          "name": "",
          "type": "string"
        },
        {
          "internalType": "uint256",
          "name": "",
          "type": "uint256"
        },
        {
          "internalType": "bool",
          "name": "",
          "type": "bool"
        }
      ],
      "stateMutability": "view",
      "type": "function"
    },
    {
      "inputs": [],
      "name": "getVoterLength",
      "outputs": [
        {
          "internalType": "uint256",
          "name": "",
          "type": "uint256"
        }
      ],
      "stateMutability": "view",
      "type": "function"
    },
    {
      "inputs": [],
      "name": "getVoterList",
      "outputs": [
        {
          "internalType": "address[]",
          "name": "",
          "type": "address[]"
        }
      ],
      "stateMutability": "view",
      "type": "function"
    },
    {
      "inputs": [
        {
          "internalType": "address",
          "name": "_address",
          "type": "address"
        },
        {
          "internalType": "string",
          "name": "_name",
          "type": "string"
        },
        {
          "internalType": "string",
          "name": "_image",
          "type": "string"
        },
        {
          "internalType": "string",
          "name": "_ipfs",
          "type": "string"
        }
      ],
      "name": "setCandidate",
      "outputs": [],
      "stateMutability": "nonpayable",
      "type": "function"
    },
    {
      "inputs": [
        {
          "internalType": "address",
          "name": "_address",
          "type": "address"
        },
        {
          "internalType": "string",
          "name": "_name",
          "type": "string"
        },
        {
          "internalType": "string",
          "name": "_ipfs",
          "type": "string"
        }
      ],
      "name": "setVoter",
      "outputs": [],
      "stateMutability": "nonpayable",
      "type": "function"
    },
    {
      "inputs": [
        {
          "internalType": "address",
          "name": "_candidateAddress",
          "type": "address"
        },
        {
          "internalType": "uint256",
          "name": "",
          "type": "uint256"
        }
      ],
      "name": "vote",
      "outputs": [],
      "stateMutability": "nonpayable",
      "type": "function"
    },
    {
      "inputs": [
        {
          "internalType": "uint256",
          "name": "",
          "type": "uint256"
        }
      ],
      "name": "votedVoters",
      "outputs": [
        {
          "internalType": "address",
          "name": "",
          "type": "address"
        }
      ],
      "stateMutability": "view",
      "type": "function"
    },
    {
      "inputs": [
        {
          "internalType": "address",
          "name": "",
          "type": "address"
        }
      ],
      "name": "voters",
      "outputs": [
        {
          "internalType": "uint256",
          "name": "voter_voterId",
          "type": "uint256"
        },
        {
          "internalType": "string",
          "name": "voter_name",
          "type": "string"
        },
        {
          "internalType": "address",
          "name": "voter_address",
          "type": "address"
        },
        {
          "internalType": "uint256",
          "name": "voter_allowed",
          "type": "uint256"
        },
        {
          "internalType": "bool",
          "name": "voter_voted",
          "type": "bool"
        },
        {
          "internalType": "uint256",
          "name": "voter_vote",
          "type": "uint256"
        },
        {
          "internalType": "string",
          "name": "voter_ipfs",
          "type": "string"
        }
      ],
      "stateMutability": "view",
      "type": "function"
    },
    {
      "inputs": [
        {
          "internalType": "uint256",
          "name": "",
          "type": "uint256"
        }
      ],
      "name": "votersAddress",
      "outputs": [
        {
          "internalType": "address",
          "name": "",
          "type": "address"
        }
      ],
      "stateMutability": "view",
      "type": "function"
    },
    {
      "inputs": [],
      "name": "votingOwner",
      "outputs": [
        {
          "internalType": "address",
          "name": "",
          "type": "address"
        }
      ],
      "stateMutability": "view",
      "type": "function"
    }
  ],
  "bytecode": "0x608060405234801561001057600080fd5b5033600260006101000a81548173ffffffffffffffffffffffffffffffffffffffff021916908373ffffffffffffffffffffffffffffffffffffffff1602179055506122b1806100616000396000f3fe608060405234801561001057600080fd5b50600436106101165760003560e01c80637831ffb3116100a2578063a3ec138d11610071578063a3ec138d14610316578063a73889671461034c578063b28d92ae1461036a578063b9be315214610388578063f7522a83146103a657610116565b80637831ffb31461025e578063809163e31461028e5780638ab66a90146102ac5780638fb4cd80146102e157610116565b80633970afa9116100e95780633970afa9146101a65780633a88251a146101c457806343242daa146101f45780635f74bbde1461022457806370218b851461024057610116565b806305ad45a41461011b5780632348206a146101395780632ebd2d6a1461015557806337f15e7d1461018a575b600080fd5b6101236103c4565b60405161013091906117aa565b60405180910390f35b610153600480360381019061014e919061197d565b6103d1565b005b61016f600480360381019061016a9190611a08565b610642565b60405161018196959493929190611acc565b60405180910390f35b6101a4600480360381019061019f9190611b42565b6109b6565b005b6101ae610bf1565b6040516101bb9190611cbb565b60405180910390f35b6101de60048036038101906101d99190611d09565b610c7f565b6040516101eb9190611d36565b60405180910390f35b61020e60048036038101906102099190611d09565b610cbe565b60405161021b9190611d36565b60405180910390f35b61023e60048036038101906102399190611d51565b610cfd565b005b610248610ebc565b6040516102559190611cbb565b60405180910390f35b61027860048036038101906102739190611d09565b610f4a565b6040516102859190611d36565b60405180910390f35b610296610f89565b6040516102a39190611d36565b60405180910390f35b6102c660048036038101906102c19190611a08565b610faf565b6040516102d896959493929190611d91565b60405180910390f35b6102fb60048036038101906102f69190611a08565b6111a3565b60405161030d96959493929190611e22565b60405180910390f35b610330600480360381019061032b9190611a08565b611498565b6040516103439796959493929190611e91565b60405180910390f35b610354611617565b60405161036191906117aa565b60405180910390f35b610372611623565b60405161037f9190611cbb565b60405180910390f35b6103906116b1565b60405161039d91906117aa565b60405180910390f35b6103ae6116bd565b6040516103bb91906117aa565b60405180910390f35b6000600680549050905090565b3373ffffffffffffffffffffffffffffffffffffffff16600260009054906101000a900473ffffffffffffffffffffffffffffffffffffffff1673ffffffffffffffffffffffffffffffffffffffff1614610461576040517f08c379a000000000000000000000000000000000000000000000000000000000815260040161045890611f5a565b60405180910390fd5b61046b60006116ca565b600061047760006116e0565b90506000600760008673ffffffffffffffffffffffffffffffffffffffff1673ffffffffffffffffffffffffffffffffffffffff168152602001908152602001600020905060008160030154146104cd57600080fd5b60018160030181905550818160000181905550838160010190805190602001906104f89291906116ee565b50848160020160006101000a81548173ffffffffffffffffffffffffffffffffffffffff021916908373ffffffffffffffffffffffffffffffffffffffff16021790555060008160040160006101000a81548160ff0219169083151502179055506103e881600501819055508281600601908051906020019061057c9291906116ee565b506006859080600181540180825580915050600190039060005260206000200160009091909190916101000a81548173ffffffffffffffffffffffffffffffffffffffff021916908373ffffffffffffffffffffffffffffffffffffffff160217905550817f68ea7283416d0b6b5f515e69d433621b49f3b2853e2bd5f5640f6f1c47ce5be1858784600301548560040160009054906101000a900460ff1686600501548960405161063396959493929190611f7a565b60405180910390a25050505050565b606060006060600060606000600460008873ffffffffffffffffffffffffffffffffffffffff1673ffffffffffffffffffffffffffffffffffffffff168152602001908152602001600020600101600460008973ffffffffffffffffffffffffffffffffffffffff1673ffffffffffffffffffffffffffffffffffffffff16815260200190815260200160002060000154600460008a73ffffffffffffffffffffffffffffffffffffffff1673ffffffffffffffffffffffffffffffffffffffff168152602001908152602001600020600201600460008b73ffffffffffffffffffffffffffffffffffffffff1673ffffffffffffffffffffffffffffffffffffffff16815260200190815260200160002060030154600460008c73ffffffffffffffffffffffffffffffffffffffff1673ffffffffffffffffffffffffffffffffffffffff168152602001908152602001600020600501600460008d73ffffffffffffffffffffffffffffffffffffffff1673ffffffffffffffffffffffffffffffffffffffff16815260200190815260200160002060040160009054906101000a900473ffffffffffffffffffffffffffffffffffffffff1685805461080990612018565b80601f016020809104026020016040519081016040528092919081815260200182805461083590612018565b80156108825780601f1061085757610100808354040283529160200191610882565b820191906000526020600020905b81548152906001019060200180831161086557829003601f168201915b5050505050955083805461089590612018565b80601f01602080910402602001604051908101604052809291908181526020018280546108c190612018565b801561090e5780601f106108e35761010080835404028352916020019161090e565b820191906000526020600020905b8154815290600101906020018083116108f157829003601f168201915b5050505050935081805461092190612018565b80601f016020809104026020016040519081016040528092919081815260200182805461094d90612018565b801561099a5780601f1061096f5761010080835404028352916020019161099a565b820191906000526020600020905b81548152906001019060200180831161097d57829003601f168201915b5050505050915095509550955095509550955091939550919395565b3373ffffffffffffffffffffffffffffffffffffffff16600260009054906101000a900473ffffffffffffffffffffffffffffffffffffffff1673ffffffffffffffffffffffffffffffffffffffff1614610a46576040517f08c379a0000000000000000000000000000000000000000000000000000000008152600401610a3d90612096565b60405180910390fd5b610a5060016116ca565b6000610a5c60016116e0565b90506000600460008773ffffffffffffffffffffffffffffffffffffffff1673ffffffffffffffffffffffffffffffffffffffff168152602001908152602001600020905081816000018190555084816001019080519060200190610ac29291906116ee565b5083816002019080519060200190610adb9291906116ee565b5060008160030181905550858160040160006101000a81548173ffffffffffffffffffffffffffffffffffffffff021916908373ffffffffffffffffffffffffffffffffffffffff16021790555082816005019080519060200190610b419291906116ee565b506003869080600181540180825580915050600190039060005260206000200160009091909190916101000a81548173ffffffffffffffffffffffffffffffffffffffff021916908373ffffffffffffffffffffffffffffffffffffffff160217905550817f90f56c84b4b2e24220b751da6de9e56937478e7f932b8b730f066eb1e972bd69868684600301548a88604051610be19594939291906120b6565b60405180910390a2505050505050565b60606005805480602002602001604051908101604052809291908181526020018280548015610c7557602002820191906000526020600020905b8160009054906101000a900473ffffffffffffffffffffffffffffffffffffffff1673ffffffffffffffffffffffffffffffffffffffff1681526020019060010190808311610c2b575b5050505050905090565b60038181548110610c8f57600080fd5b906000526020600020016000915054906101000a900473ffffffffffffffffffffffffffffffffffffffff1681565b60068181548110610cce57600080fd5b906000526020600020016000915054906101000a900473ffffffffffffffffffffffffffffffffffffffff1681565b6000600760003373ffffffffffffffffffffffffffffffffffffffff1673ffffffffffffffffffffffffffffffffffffffff16815260200190815260200160002090508060040160009054906101000a900460ff1615610d92576040517f08c379a0000000000000000000000000000000000000000000000000000000008152600401610d899061216a565b60405180910390fd5b600081600301541415610dda576040517f08c379a0000000000000000000000000000000000000000000000000000000008152600401610dd1906121d6565b60405180910390fd5b60018160040160006101000a81548160ff0219169083151502179055506005339080600181540180825580915050600190039060005260206000200160009091909190916101000a81548173ffffffffffffffffffffffffffffffffffffffff021916908373ffffffffffffffffffffffffffffffffffffffff1602179055508060030154600460008573ffffffffffffffffffffffffffffffffffffffff1673ffffffffffffffffffffffffffffffffffffffff1681526020019081526020016000206003016000828254610eb09190612225565b92505081905550505050565b60606003805480602002602001604051908101604052809291908181526020018280548015610f4057602002820191906000526020600020905b8160009054906101000a900473ffffffffffffffffffffffffffffffffffffffff1673ffffffffffffffffffffffffffffffffffffffff1681526020019060010190808311610ef6575b5050505050905090565b60058181548110610f5a57600080fd5b906000526020600020016000915054906101000a900473ffffffffffffffffffffffffffffffffffffffff1681565b600260009054906101000a900473ffffffffffffffffffffffffffffffffffffffff1681565b6004602052806000526040600020600091509050806000015490806001018054610fd890612018565b80601f016020809104026020016040519081016040528092919081815260200182805461100490612018565b80156110515780601f1061102657610100808354040283529160200191611051565b820191906000526020600020905b81548152906001019060200180831161103457829003601f168201915b50505050509080600201805461106690612018565b80601f016020809104026020016040519081016040528092919081815260200182805461109290612018565b80156110df5780601f106110b4576101008083540402835291602001916110df565b820191906000526020600020905b8154815290600101906020018083116110c257829003601f168201915b5050505050908060030154908060040160009054906101000a900473ffffffffffffffffffffffffffffffffffffffff169080600501805461112090612018565b80601f016020809104026020016040519081016040528092919081815260200182805461114c90612018565b80156111995780601f1061116e57610100808354040283529160200191611199565b820191906000526020600020905b81548152906001019060200180831161117c57829003601f168201915b5050505050905086565b6000606060006060600080600760008873ffffffffffffffffffffffffffffffffffffffff1673ffffffffffffffffffffffffffffffffffffffff16815260200190815260200160002060000154600760008973ffffffffffffffffffffffffffffffffffffffff1673ffffffffffffffffffffffffffffffffffffffff168152602001908152602001600020600101600760008a73ffffffffffffffffffffffffffffffffffffffff1673ffffffffffffffffffffffffffffffffffffffff16815260200190815260200160002060020160009054906101000a900473ffffffffffffffffffffffffffffffffffffffff16600760008b73ffffffffffffffffffffffffffffffffffffffff1673ffffffffffffffffffffffffffffffffffffffff168152602001908152602001600020600601600760008c73ffffffffffffffffffffffffffffffffffffffff1673ffffffffffffffffffffffffffffffffffffffff16815260200190815260200160002060030154600760008d73ffffffffffffffffffffffffffffffffffffffff1673ffffffffffffffffffffffffffffffffffffffff16815260200190815260200160002060040160009054906101000a900460ff1684805461137790612018565b80601f01602080910402602001604051908101604052809291908181526020018280546113a390612018565b80156113f05780601f106113c5576101008083540402835291602001916113f0565b820191906000526020600020905b8154815290600101906020018083116113d357829003601f168201915b5050505050945082805461140390612018565b80601f016020809104026020016040519081016040528092919081815260200182805461142f90612018565b801561147c5780601f106114515761010080835404028352916020019161147c565b820191906000526020600020905b81548152906001019060200180831161145f57829003601f168201915b5050505050925095509550955095509550955091939550919395565b60076020528060005260406000206000915090508060000154908060010180546114c190612018565b80601f01602080910402602001604051908101604052809291908181526020018280546114ed90612018565b801561153a5780601f1061150f5761010080835404028352916020019161153a565b820191906000526020600020905b81548152906001019060200180831161151d57829003601f168201915b5050505050908060020160009054906101000a900473ffffffffffffffffffffffffffffffffffffffff16908060030154908060040160009054906101000a900460ff169080600501549080600601805461159490612018565b80601f01602080910402602001604051908101604052809291908181526020018280546115c090612018565b801561160d5780601f106115e25761010080835404028352916020019161160d565b820191906000526020600020905b8154815290600101906020018083116115f057829003601f168201915b5050505050905087565b60018060000154905081565b606060068054806020026020016040519081016040528092919081815260200182805480156116a757602002820191906000526020600020905b8160009054906101000a900473ffffffffffffffffffffffffffffffffffffffff1673ffffffffffffffffffffffffffffffffffffffff168152602001906001019080831161165d575b5050505050905090565b60008060000154905081565b6000600380549050905090565b6001816000016000828254019250508190555050565b600081600001549050919050565b8280546116fa90612018565b90600052602060002090601f01602090048101928261171c5760008555611763565b82601f1061173557805160ff1916838001178555611763565b82800160010185558215611763579182015b82811115611762578251825591602001919060010190611747565b5b5090506117709190611774565b5090565b5b8082111561178d576000816000905550600101611775565b5090565b6000819050919050565b6117a481611791565b82525050565b60006020820190506117bf600083018461179b565b92915050565b6000604051905090565b600080fd5b600080fd5b600073ffffffffffffffffffffffffffffffffffffffff82169050919050565b6000611804826117d9565b9050919050565b611814816117f9565b811461181f57600080fd5b50565b6000813590506118318161180b565b92915050565b600080fd5b600080fd5b6000601f19601f8301169050919050565b7f4e487b7100000000000000000000000000000000000000000000000000000000600052604160045260246000fd5b61188a82611841565b810181811067ffffffffffffffff821117156118a9576118a8611852565b5b80604052505050565b60006118bc6117c5565b90506118c88282611881565b919050565b600067ffffffffffffffff8211156118e8576118e7611852565b5b6118f182611841565b9050602081019050919050565b82818337600083830152505050565b600061192061191b846118cd565b6118b2565b90508281526020810184848401111561193c5761193b61183c565b5b6119478482856118fe565b509392505050565b600082601f83011261196457611963611837565b5b813561197484826020860161190d565b91505092915050565b600080600060608486031215611996576119956117cf565b5b60006119a486828701611822565b935050602084013567ffffffffffffffff8111156119c5576119c46117d4565b5b6119d18682870161194f565b925050604084013567ffffffffffffffff8111156119f2576119f16117d4565b5b6119fe8682870161194f565b9150509250925092565b600060208284031215611a1e57611a1d6117cf565b5b6000611a2c84828501611822565b91505092915050565b600081519050919050565b600082825260208201905092915050565b60005b83811015611a6f578082015181840152602081019050611a54565b83811115611a7e576000848401525b50505050565b6000611a8f82611a35565b611a998185611a40565b9350611aa9818560208601611a51565b611ab281611841565b840191505092915050565b611ac6816117f9565b82525050565b600060c0820190508181036000830152611ae68189611a84565b9050611af5602083018861179b565b8181036040830152611b078187611a84565b9050611b16606083018661179b565b8181036080830152611b288185611a84565b9050611b3760a0830184611abd565b979650505050505050565b60008060008060808587031215611b5c57611b5b6117cf565b5b6000611b6a87828801611822565b945050602085013567ffffffffffffffff811115611b8b57611b8a6117d4565b5b611b978782880161194f565b935050604085013567ffffffffffffffff811115611bb857611bb76117d4565b5b611bc48782880161194f565b925050606085013567ffffffffffffffff811115611be557611be46117d4565b5b611bf18782880161194f565b91505092959194509250565b600081519050919050565b600082825260208201905092915050565b6000819050602082019050919050565b611c32816117f9565b82525050565b6000611c448383611c29565b60208301905092915050565b6000602082019050919050565b6000611c6882611bfd565b611c728185611c08565b9350611c7d83611c19565b8060005b83811015611cae578151611c958882611c38565b9750611ca083611c50565b925050600181019050611c81565b5085935050505092915050565b60006020820190508181036000830152611cd58184611c5d565b905092915050565b611ce681611791565b8114611cf157600080fd5b50565b600081359050611d0381611cdd565b92915050565b600060208284031215611d1f57611d1e6117cf565b5b6000611d2d84828501611cf4565b91505092915050565b6000602082019050611d4b6000830184611abd565b92915050565b60008060408385031215611d6857611d676117cf565b5b6000611d7685828601611822565b9250506020611d8785828601611cf4565b9150509250929050565b600060c082019050611da6600083018961179b565b8181036020830152611db88188611a84565b90508181036040830152611dcc8187611a84565b9050611ddb606083018661179b565b611de86080830185611abd565b81810360a0830152611dfa8184611a84565b9050979650505050505050565b60008115159050919050565b611e1c81611e07565b82525050565b600060c082019050611e37600083018961179b565b8181036020830152611e498188611a84565b9050611e586040830187611abd565b8181036060830152611e6a8186611a84565b9050611e79608083018561179b565b611e8660a0830184611e13565b979650505050505050565b600060e082019050611ea6600083018a61179b565b8181036020830152611eb88189611a84565b9050611ec76040830188611abd565b611ed4606083018761179b565b611ee16080830186611e13565b611eee60a083018561179b565b81810360c0830152611f008184611a84565b905098975050505050505050565b7f4f6e6c79206f776e65722063616e2061646420766f746572732e000000000000600082015250565b6000611f44601a83611a40565b9150611f4f82611f0e565b602082019050919050565b60006020820190508181036000830152611f7381611f37565b9050919050565b600060c0820190508181036000830152611f948189611a84565b9050611fa36020830188611abd565b611fb0604083018761179b565b611fbd6060830186611e13565b611fca608083018561179b565b81810360a0830152611fdc8184611a84565b9050979650505050505050565b7f4e487b7100000000000000000000000000000000000000000000000000000000600052602260045260246000fd5b6000600282049050600182168061203057607f821691505b6020821081141561204457612043611fe9565b5b50919050565b7f4f6e6c79204f776e65722063616e207365742063616e646964617465732e0000600082015250565b6000612080601e83611a40565b915061208b8261204a565b602082019050919050565b600060208201905081810360008301526120af81612073565b9050919050565b600060a08201905081810360008301526120d08188611a84565b905081810360208301526120e48187611a84565b90506120f3604083018661179b565b6121006060830185611abd565b81810360808301526121128184611a84565b90509695505050505050565b7f596f75206861766520616c726561647920766f7465642e000000000000000000600082015250565b6000612154601783611a40565b915061215f8261211e565b602082019050919050565b6000602082019050818103600083015261218381612147565b9050919050565b7f596f7520646f6e7420686176652074686520726967687420746f20766f74652e600082015250565b60006121c0602083611a40565b91506121cb8261218a565b602082019050919050565b600060208201905081810360008301526121ef816121b3565b9050919050565b7f4e487b7100000000000000000000000000000000000000000000000000000000600052601160045260246000fd5b600061223082611791565b915061223b83611791565b9250827fffffffffffffffffffffffffffffffffffffffffffffffffffffffffffffffff038211156122705761226f6121f6565b5b82820190509291505056fea2646970667358221220d42d381552a335c88096c01c2d9caa15fbb8a1fa281e60a14900617f4b4c32c764736f6c63430008090033",
  "linkReferences": {},
  "deployedLinkReferences": {}
}